:020000040800F2
:10000000B83C00206D6C0008756C0008776C000827
:10001000796C00087B6C00087D6C00080000000013
:100020000000000000000000000000007F6C0008DD
:10003000816C000800000000836C0008D575000882
:10004000876C0008876C0008876C0008157E000824
:10005000876C0008876C0008FD72000813730008A5
:10006000876C000831730008876C0008876C0008F3
:10007000876C0008876C0008876C0008876C000894
:10008000876C0008876C0008876C0008876C000884
:10009000876C0008876C0008876C00084F730008A5
:1000A000876C0008876C0008876C0008876C000864
:1000B000876C0008876C0008876C0008876C000854
:1000C000876C0008876C0008876C0008876C000844
:1000D000876C00084BBB0008876C0008876C000821
:1000E000876C0008876C0008876C0008876C000824
:1000F000876C0008DFF80CD00EF064F90048004768
:10010000E1150008B83C0020EFF3108072B670478C
:1001100080F310887047000010B5044608F0FEFA1E
:10012000F94808F0C6FBF848048008F08CFB10BDC5
:1001300001200021F44A1188012909D0052907D09E
:10014000F24A1188012901D0052902D1084600E0B0
:1001500008467047EE4909680143ED4A116070474F
:10016000EB4909688143EA4A1160704710B54FF4C2
:100170008051E84809F024F84FF40050FFF7EAFFF7
:1001800014214FF4005001F0EFFA10BD10B54FF4F8
:100190000041E04809F014F84FF48040FFF7DAFF1F
:1001A00014214FF4804001F0DFFA10BD10B500BFFC
:1001B0000CF0EEFF0121D84808F0E8FF0128F7D045
:1001C00010BD2DE9F05F4FF0000AD346D348007808
:1001D0004FF4FA7191FBF0F1D1480088801E90FB3A
:1001E000F1F201FB120060BB06F0CFFD83460BF17C
:1001F0003C000DF01CFF80464FF03332C94B0DF030
:1002000099FE06460022C84B0DF07BFD04460DF01A
:1002100073FF1FFA80FABAF5967F13DDBAF5BE7F39
:1002200006DAC248407940F00100C049487105E053
:10023000BE48407920F00100BC494871504606F0A4
:10024000AFF904E0B6480088401EB5490880BDE813
:10025000F09F10B504464FF40041AE4808F0AEFFE1
:100260004FF48051AB4808F0A9FF06F01EFE2CB9F0
:1002700007F043FA0020AE49087017E0AC4A117845
:1002800001EBD1725210B1EB42020AD1A84A1078A8
:10029000C21700EB92729210B0EB820201D007F00D
:1002A0002CFAA3480078401CA149087010BD10B575
:1002B000A048007898B99D48007801280FD19B4844
:1002C0008079401C9949887108468079022809DBA9
:1002D00006F003F94FF496709449488102E000203B
:1002E0009249887110BD10B500200CF007FF052061
:1002F0000CF0E9FE052140F641100CF062FE10BD45
:100300001CB50620012181408B4A430942F8231085
:1003100000BF06F0EDFA102006F00AFB05F0EEFE35
:100320000446864884421AD010217A4808F048FFD3
:10033000012006F0BAFB1021764808F03FFF0720A5
:1003400006F0B3FB322006F0B0FB05F0D7FE044602
:100350007A48844201D080171CBD0DF0FCF906F0EC
:10036000C7FA05F0A8FE082006F0E2FA05F0C6FE7E
:1003700004467248844201D08017EDE77048007847
:100380008DF800006E48C0788DF801006C48407808
:100390008DF802006A4840798DF805006848807938
:1003A0008DF80600664880788DF80300644800796F
:1003B0008DF80400684605F0A5FEFFF794FF0620BF
:1003C0000121814042094FF0E02303EB8202C2F891
:1003D000001100BF60B2BFE710B5FFF7D7FE06F00F
:1003E0005CFDC821402001F0BFF910BD00B5002020
:1003F000544908704FF48070FFF7ACFE00BD10B593
:1004000000244A48447906F044F804464FF400308A
:1004100001F093F901204C4908705CBB4948017810
:100420000078401C474A10700F2908DC4FF4FA711D
:100430004FF4807001F098F9FFF7CEFF45E0FFF729
:1004400095FE06F032FD07F058F94FF4807001F088
:100450000EFA4FF47A714FF4003001F085F906F08E
:1004600030F80020374908703749087001203749B3
:1004700008702AE0334801780078401C314A107037
:10048000062908DA4FF4FA714FF4807001F06CF924
:10049000FFF7A2FF19E0FFF769FE06F006FD07F07F
:1004A0002CF906F00EF84FF4807001F0E0F94FF4EB
:1004B0007A714FF4003001F057F90020214908709B
:1004C0002149087001202149087010BD10B5174856
:1004D000407910F0080F3BD0FFF77EFF14490878F1
:1004E000C11700EB91718910B0EB810101D107F0C8
:1004F000FDF84FF4FA714FF4007001F035F9012066
:100500001149087029E00000F00F080802FF0108F7
:100510008800002000000240000402404C0000203F
:1005200070000020333307400000F03F081B00201C
:10053000720000205B00002080E100E03001CADE94
:1005400000000020450000204D0000203F0000205A
:100550000020FE490870FFF77CFE10BD10B5002496
:1005600006F080FD04000DD1F84908704FF400300A
:1005700001F07DF94FF47A714FF4003001F0F4F896
:10058000002010BD14F0010F31D00120EF49087098
:10059000400401F06CF94FF47A714FF4003001F02F
:1005A000E3F8EB4800780A280DDAE9480078401CA7
:1005B000E74908700020E7490870C821102001F0C1
:1005C000D3F80220DDE70020E1490870DF49087018
:1005D000E148407940F00400DF4948714FF48070F1
:1005E00001F094F8012006F024F80120C9E714F086
:1005F000020055D0D9480078012851D1D648407919
:1006000010F008004CD00120D0490870400401F0DF
:100610002EF94FF47A714FF4003001F0A5F8CC4870
:10062000007805280DDACA480078401CC8490870CF
:100630000020C8490870C821102001F095F8022058
:100640009FE706F032FC0020C1490870C3490870DA
:10065000C148407910F0080F10D0BF48407940F0F1
:100660001000BD49487103F0C9FCBD494FF48060DA
:1006700001F07AF84FF4007001F0F9F84FF400300F
:1006800001F0F5F84FF47A714FF4003001F06CF896
:100690000020AE4908700120AE490870002070E7C4
:1006A00000BF6EE770B5AF48007818B1AEA00DF08E
:1006B000ACF970BD0C2007F012F9AE494870054640
:1006C00007F031F960B10120A64908700020AA495D
:1006D0000880A148407920F080009F494871E8E7F0
:1006E0000C2007F0FCF8A349487000209D490870D1
:1006F0009948407940F0800097494871162007F0EA
:10070000EEF89C4988701E2007F0E9F89949C870F6
:10071000012007F0E4F897490871032007F0DFF89B
:1007200094494871102007F0DAF80446914800799E
:1007300092490979884205DB8E4800798F49097909
:10074000401A04E08D4800798A490979401A042842
:1007500012DC8848407989494979884205DB854817
:10076000407986494979401A04E0844840798149B2
:100770004979401A042806DD7748407940F0200086
:100780007549487116E07B48C07810F0400F04D1DD
:100790007848807810F0800F06D06F48407940F09C
:1007A00020006D49487105E06B48407920F0200039
:1007B0006949487171486F490A6802608A88828075
:1007C0008979817114F0040F09D014F0400F06D11B
:1007D0006148407940F040005F49487105E05E485B
:1007E000407920F040005C4948715B48407910F046
:1007F000200F08D00020604908806149087001205E
:100800006049087010E05C4800885F4909888842A8
:1008100005DA59480088401C5749088004E0002048
:100820005849087006F067FB00BF42E710B505F0B5
:10083000C6FEE8B148484078012806D1052002F0FC
:1008400044FE05205149087009E0434840780528D6
:1008500005D1012002F039FE01204C49087005F055
:100860003CFE4BA00DF0D1F848480078FFF754FC4F
:1008700010BD10B5002405F0CFFE044636480078C0
:1008800078B14CB93148007830B905F026FE4FF404
:1008900096703149488113E094B1012001F029FAA2
:1008A0000EE005F0DCFE414908700846007838B1DA
:1008B000012001F01EFA0120274908703C49087008
:1008C00010BD0146002000220EE080EA010313F073
:1008D000010F05D080F01800401040F0800000E0CB
:1008E00040104910531CDAB2082AEEDB70472DE99C
:1008F000F0474FF0000906F07DFE2E4908802E4893
:10090000007868B92C480078401C2B4908702948A9
:1009100000882A490880002029490880002609E02B
:100920002448008825490988401A86B22148008851
:1009300022490880012E05DD01201F490870002092
:100940001F4908804FF480611E483DE04D000020A3
:10095000450000203F000020081B00205000002020
:10096000C02709007A000020696E76616C69640A0C
:10097000000000007E0000204200002073000020E4
:100980005800002044000020400000204C000020BF
:100990002D2D6368616E6765206465767479706576
:1009A000206F6B212D2D20210A0000006500002002
:1009B0005B0000207C0000205E00002090000020F2
:1009C000600000200000024008F0E0FB074617F03E
:1009D000010F0AD0FD480078C0F1100101208840C5
:1009E000FB4909880843FA490880F8480078401C08
:1009F000F6490870FFF7CAFB06F04FFA14214020B1
:100A000000F0B2FEF1480078112838D100254FF0EF
:100A100000080020ED490870ED480088050AEC4800
:100A200090F800802846FFF74CFF044600BFA04521
:100A30001CD1E7480088C8B1E6480088854215D136
:100A4000E34805800120E4490870E448407940F01B
:100A50000200E2494871202000F058FE022005F013
:100A6000E8FDDB480188DEA00CF0CFFF4FF47A717F
:100A70004FF4003000F078FED648058000BFBDE896
:100A8000F08710B500BF02F070FF0120DB4908704D
:100A9000DB480068DB490968441ADB480078C0EB92
:100AA000001000EB8000C821C1EB0010A0420DD265
:100AB000CA480089401CC9490881D1480068D14909
:100AC0000860D2480088401CD04908800020C349F3
:100AD0004881C860FFF7E6FD0020CD49087010BDD1
:100AE0002DE9F04105460E4617464FF00008002458
:100AF00017E0C84830F8340088B1C64830F83400F0
:100B0000A8420CD1C34820F8345000EBC400468002
:100B1000C04800EBC40087804FF0010803E0601C70
:100B2000C4B20A2CE5DB00BFB8F1000F1CD10024D1
:100B300017E0B84830F8340088B9B64820F8345087
:100B400000EBC4004680B34800EBC4008780B24885
:100B50000078401CB04908704FF0010803E0601CA9
:100B6000C4B20A2CE5DB00BFAB4800780A2807DBDB
:100B70004FF4802000F0E1FD4FF4802000F0C6FD2E
:100B8000BDE8F08102460B460021A44890F83C00E5
:100B900028B9A34890F83C0008B900207047012B01
:100BA00010D1002108E09D4830F81100904201D199
:100BB0000120F3E7481CC1B2984890F83C008842F5
:100BC000F1DC11E0052B0FD1002108E0944830F84A
:100BD0001100904201D10120E0E7481CC1B29048C9
:100BE00090F83C008842F1DC0020D7E710B53E21A8
:100BF0008A480DF005F83E2189480DF001F80020E3
:100C0000864981F83C00864981F83C0010BD10B54A
:100C1000502180480CF0F4FF10BD10B505F004FD24
:100C200004466E48C068B0F5C87F02D814F1640F5E
:100C300006DA1921082000F097FD01207949087093
:100C4000012010BD2DE9FE43002500263227A846CD
:100C5000002405F058FC064600200CF052FB7248B8
:100C6000007800287DD1FFF7F4FA70480078052855
:100C700002DC6F48007818B16D480078012871D106
:100C80006A480078401C69490870BEB9534800782A
:100C9000A0B95D480078012802D14FF4966505E0BF
:100CA00059480078052801D141F270754B484089B8
:100CB000B0F5967F64D14948458961E0FFF7F7FABE
:100CC000022E00DA052606F095FC814603F0F7FABD
:100CD000A9EB000857480078A0B9A8EB060414F562
:100CE000805F01D9C4F1FF343C48418904F10B0015
:100CF000814205D939484089001BA0F10B0528E045
:100D0000002526E0A8EB060415E03F4800780128FE
:100D100006D13248408900F59660304948810AE0A2
:100D200039480078052806D12C48408941F2707175
:100D300008442A4948812948418904F10B0081422D
:100D4000E3D326484089001BA0F10B050020394958
:100D500008702D480078012808D1B5F5FA6F05DB39
:100D600001E088E00EE040F27E4509E02648007888
:100D7000052805D141F65830854201DB41F20C755A
:100D8000322706E00020294908702B4D05F0A5FB0D
:100D900050270020294908701B480078052800D1F9
:100DA00046270F2D04DD284607F0E3F803F0BAFECE
:100DB00005F05DFC81462248018808484089334699
:100DC00042468DE8030229463CE000005E00002018
:100DD00060000020620000205F000020081B00204F
:100DE0002D2D657863697420736563757373202096
:100DF00021202564202D2D20210A000059000020EB
:100E000054000020680000204C00002070000020EA
:100E1000650000203805002085000020880500209E
:100E2000C6050020640000204D000020580000206E
:100E3000440000203F000020C0D401005B000020DF
:100E400042000020F3A00CF0E0FDFD48407910F0D6
:100E5000010F05D04FF40041FA4808F0B1F904E061
:100E60004FF48051F74808F0ABF90A214FF4804065
:100E700000F07AFC19E040F21457FFF718FA01204D
:100E8000F1490870192007F074F803F04BFEEC48A4
:100E90000089EE490988401A012802DB0020EC494C
:100EA0000870E7480089E949088006F0A3FBE94992
:100EB00008600846006805F069FB39464FF40030C9
:100EC00000F052FC022000F021FCE34800880A28D0
:100ED0001FDBE2480078E0B9FFF712FA401C10D19E
:100EE00000BFBFF34F8FDE48006800F4E060DD49CB
:100EF0000843001DDA490860BFF34F8F00BF00BFF1
:100F0000FEE70020D4490880CD490870D6A00CF037
:100F10007CFDD1480088401CCF490880C848007833
:100F200058B1D748007840B9A7F11401082000F063
:100F30001BFC012000F0DDFE09E0C148007830B95B
:100F4000791F082000F010FC002000F0D2FE04F011
:100F500033FDBDE8FE83F8B500F0BCFB044614F495
:100F6000004F09D005F0DAFF0120C64908700020C3
:100F7000C5490880FFF796FB14F4803F69D006F05E
:100F800039FBB44908600CF0ADFAB248006805F0CE
:100F9000FDFA0020BD490870BD480078C82190FBCB
:100FA000F1F201FB1200BA4908700846007801F01E
:100FB00036FF054602F0A9FA032D31D07DB300209B
:100FC000B2490870012D01D0042D06D1032000F094
:100FD000B3FD002005F0BBFA13E0022D11D16846E5
:100FE00002F086F805462946BDF80000FFF7CAFD65
:100FF00008B105F0DFFA012000F09EFD012005F0A8
:10100000A6FA05F040FA00221346104602F0C9FE87
:10101000022000F092FB022000F078FB13E0FFE7D3
:10102000032D0BD1002005F092FA4FF4805000F010
:1010300084FB4FF4805000F069FB04E000BF95A0F2
:101040000CF0E3FC00BF92480078401C9049087007
:1010500000BF14F0020F12D08C48007805F011FB8D
:1010600004F07EFC032803D004F07AFC012806D1AA
:1010700086480078012802D100208449087014F0C5
:10108000100F0DD0FFF76AFA0546012D07D10CF0BD
:1010900029FA012000F02DFE01207949087000BFD7
:1010A00014F0200F10D085480078012801D0FFF7F8
:1010B0001EFC82480078012806D18148008803F090
:1010C000A8F800207D49087014F0400F02D00120DC
:1010D000FFF7BFF814F4807F1CD0FFF790F905F0FC
:1010E000D8F9B8B966480078012813D1754908784D
:1010F00000EBD0714910B0EB410103D0012000F0AA
:10110000F8FD02E0002000F0F4FD02F0A3FF6EA065
:101110000CF07BFC14F4007F27D005F0C3F90546E2
:1011200035B16E480078012802D1FFF7CFF91BE0F6
:101130008DB905F0B7F9064668480278314668A0CF
:101140000CF063FC01206549087000204C490870D0
:10115000FFF77FF808E005F0A5F906465F4802783A
:10116000314665A00CF051FC00BF14F4806F08D02C
:101170003348407920F01000314948710120574927
:10118000087014F4006F01D0FFF730FD14F4005F15
:1011900004D04FF480512B4808F010F814F4804F1D
:1011A00009D04FF40041274808F008F84FF4805167
:1011B000244808F003F814F0080F1AD005F09FF93E
:1011C00005461F480078012812D105F025FA48B9D4
:1011D0002B48007848B94E48007830B9002000F01C
:1011E00088FD02E0012002F051FA0120494908700F
:1011F00000BF14F4003F0BD047480078002808DDFA
:1012000006F0F8F985B245480088281A642887E076
:10121000A8E091E0206F757420736C656570202CD8
:1012200074696D653D2564207C2025647C256420DF
:101230007C2564207C2564207C25690A0A00000046
:10124000081B0020000002403F0000206C0000202E
:101250005B000020540000206E000020650000208C
:101260000CED00E00000FA052D2D2D2D2D2D2D2D3E
:1012700072657365742D2D2D2D2D202D210A0000F2
:101280004D000020440000204200002059000020B2
:101290004E000020202A2A2A2A2A204572726F3AFC
:1012A00020736C6F746D73677479706520657272EA
:1012B0006F212A2A2A2A2A200A2000005F00002003
:1012C000600000204500002062656761696E207340
:1012D000656E642068656C7020210A005000002053
:1012E000312D72657472656174203A202564207C0A
:1012F000202564210A000000322D72657472656138
:1013000074203A202564207C202564210A000000F6
:10131000640000205C0000205E000020900000209F
:1013200003DD00205849087005E032214FF40030F9
:1013300000F01AFAF8BD00BF002054490870FFF70A
:1013400098FA00214FF481400CF07EF90CF0CAF8B5
:10135000FFF76CFA02F04BFEFFF774FC06F036F96B
:10136000FFF78FFB00BFE5E770B504F0FCFA00283B
:1013700026D0002400250120454908704548007802
:10138000002803DD43480078451E00E0002505F0F5
:1013900070F8044600204049088004F0E1FA032870
:1013A0000DD14FF4003000F062FA4FF4003000F03D
:1013B000ADF93A482246C16839A00CF026FB00BFBF
:1013C00070BDFEF790FF4FF400413F4807F0F6FE76
:1013D0004FF480513C4807F0F1FEFFF718FCFFF78F
:1013E00005FC04F0BDFA02280FD1C00300F08EF90D
:1013F0000A214FF4802000F0B7F901F0DEFE1E2133
:101400004FF4803000F0EEF92BE001202F490870F6
:10141000022000F07BF904F0A3FA032804D146214E
:101420004FF4003000F0A0F904F09AFA03280AD132
:10143000FEF77EFE264908700846007802F045F85F
:1014400005F04BF80DE004F08BFA012809D102F009
:101450005CF80A214FF4802000F086F9012000F0AA
:101460006BFB0FE005F06BF8012805D1022000F0BE
:1014700064F9022000F04AF900F034FAFFF76BFD3E
:10148000FFF772FFEEE700005E0000205C00002026
:101490005B0000204F0000206E000020081B002091
:1014A0000A2D2D2D2D2D2D2D2D2D2D2D2D646973D6
:1014B000743D20256420636D20203B2073657120DE
:1014C0003D202564200A0000000002405900002051
:1014D0004C0000207CB5182005F02AFA04F00EFE1E
:1014E00004465A4884421AD01021594807F068FE31
:1014F000012005F0DAFA1021554807F05FFE0720B9
:1015000005F0D3FA322005F0D0FA04F0F7FD0446D6
:101510004E48844201D080177CBD0CF01CF905F0C8
:10152000E7F904F0A4FC0546002D02DA4FF0FF3085
:10153000F2E7082005F0FCF904F0E0FD044643481A
:10154000844201D08017E7E74248006804F005FABA
:1015500000204149086008460068C0EBC0003F49D0
:10156000085C8DF800003C480068C0EBC0000844EF
:10157000C0788DF8010038480068C0EBC00008440E
:1015800040788DF8020034480068C0EBC000084481
:1015900040798DF8050030480068C0EBC000084471
:1015A00080798DF806002C480068C0EBC000084424
:1015B00080788DF8030028480068C0EBC00008441C
:1015C00000798DF80400684604F09CFD4FF4FA7031
:1015D00004F0BDFE0020224904F0D1FE20469BE726
:1015E00010B505F0F3FC0CF0DBF903201949086095
:1015F0000620012181401B4A430942F8231000BF05
:1016000005F076F9FFF766FF401C0DD100BF16A06C
:101610000CF0FBF900BF06E005F04BFE05F058FEAC
:10162000C82005F042FAF7E706200121814042096F
:101630004FF0E02303EB8202C2F8001100BF05F077
:10164000CFFFFFF7BEFE002010BD00003001CADE54
:1016500000000240DC000020D800002094000020A0
:101660000000144080E100E0496E69742064773125
:10167000303030206572726F720A0000014600201F
:1016800006E0012282400A4200D003E0421CD0B2B0
:101690002028F6DB00BF704770B5044624B1E04354
:1016A000401C2040A04201D0002070BDFEF72CFD60
:1016B0000646C2480068044206D0C0480068604040
:1016C000BE490860012500E000253046FEF720FDF8
:1016D0002846EAE770B5FEF717FD0546B7480468E7
:1016E0000020B64908602846FEF712FD204670BD6E
:1016F00010B54FF4C071B2480CF082FA0020B14925
:101700000860AE490860B049087010BD70B5044665
:1017100024B1E043401C2040A04201D0002070BD15
:10172000FEF7F2FC0546A54800682043A34908607F
:101730002846FEF7EDFC0120F1E770B5044624B120
:10174000E043401C2040A04201D0002070BDFEF7C5
:10175000DBFC054699480068A04398490860284684
:10176000FEF7D6FC0120F1E72DE9F04105460E46D3
:1017700026B92846FFF7CAFFBDE8F08145B1E84326
:10178000401C2840A84203D16FF00040864201D39C
:101790000020F1E72846FFF771FF0446202C01DB0B
:1017A0000020E9E7FEF7B0FC074604EB440084495B
:1017B00001EB8000406820B983480078401C8249D2
:1017C0000870002004EB44017D4A42F8210004EB3C
:1017D0004400114601EB800046603846FEF798FC55
:1017E0000120C9E72DE9F04105460E464DB1E84319
:1017F000401C2840A84204D11EB16FF00040864230
:1018000002D30020BDE8F0812846FFF737FF0446E9
:10181000202C01DB0020F5E7FEF776FC074604EB01
:101820004400674901EB8000406880B96648007851
:10183000401C65490870002004EB4401604A42F8EE
:10184000210004EB4400114601EB8000466004EBEC
:1018500044005B4901EB800086605A4800682843D9
:10186000584908603846FEF753FC0120CAE770B5B6
:10187000044624B1E043401C2040A04201D0002097
:1018800070BD2046FFF7FAFE0546202D01DB002043
:10189000F6E7FEF739FC064605EB4500484901EB43
:1018A0008000406820B148480078401E46490870D2
:1018B000002005EB4501424A42F8210005EB4501B5
:1018C00002EB810148603F480068A0433D49086041
:1018D0003A480068A043394908603046FEF718FCD2
:1018E0000120CDE72DE9F0414FF0FF303749086086
:1018F0003248006808B10020086005F07BFE05460C
:10190000002651E006EB46002D4901EB8004FEF76E
:10191000FBFB8046606818B94046FEF7F9FB41E0E2
:10192000206810B960682844206020682F1A6FF082
:101930000040874222D20020244908600120B040A4
:101940001E49096808431D4908600120B0401D492F
:101950000968084203D0A068284420601EE00020E7
:101960002060606018480078002803DD1648007881
:10197000401E00E00020144908700FE01348006882
:1019800060B12068401B11490968884202D90F489C
:10199000006801E02068401B0C4908604046FEF7E3
:1019A000B7FB00BF701CC6B2202EABDBBDE8F081D8
:1019B00010B5FFF797FF0548006810BDE400002050
:1019C00004060020E0000020EC000020E8000020D9
:1019D00070B505460E466C68FE480068844206D025
:1019E0002146FDA00CF011F80020FD490860F948DF
:1019F000046070BD10B500244FF48051F94807F021
:101A0000C5FB044614B105F046FC01E005F04AFCB4
:101A100010BDF54991F8C4120143F34A82F8C4128B
:101A20007047F14991F8C4128143EF4A82F8C41219
:101A300070470146EC4A92F8C42202EA0100EA4AE1
:101A400092F8C4228A43E84B83F8C42270470146C7
:101A5000002211F0080F04D011F0100F01D0002067
:101A6000704711F0080F09D0E0484078052810D1E0
:101A70000120DD4B83F8CC0201220AE011F0100FA7
:101A800007D0DA484078012803D1D74B83F8CC023D
:101A900001221046E4E70146012903D1D448D54A82
:101AA000106037E0022903D1D348D24A106031E0F8
:101AB000032903D1D148CF4A10602BE0042903D178
:101AC000CF48CC4A106025E0052903D1CD48C94A4A
:101AD00010601FE0062903D1CB48C64A106019E008
:101AE000072903D1C948C34A106013E0082903D16C
:101AF000C748C04A10600DE0092903D1C548BD4A56
:101B0000106007E00A2903D1C348BA4A106001E017
:101B1000002070470120FCE70020C049088870477A
:101B200010B50BF0DFFC4FF40030FFF706FE042188
:101B3000C803FFF719FE10BD2DE9F041054600244A
:101B4000032700BFA8465B206043A74901EBC00004
:101B500080F8148039465B226243A34B03EBC20238
:101B600002F114000AF04AFD05EB4500AC4911F8FA
:101B700020105B2060439C4A02EBC00080F82410D8
:101B80005B20604302EBC000017D01200AF0E2FC13
:101B900006460EB1701C05D105EB4500A04901EBCE
:101BA000800046685B2060438F4901EBC00090F8DD
:101BB0002000012805D15B20604301EBC000866254
:101BC0000DE0F0B240EA002141EA004141EA006242
:101BD0005B216143844B03EBC1018A6200BF5B2040
:101BE0006043814911F83000032813D1012D07D13A
:101BF00088495B2060437C4A02EBC000816211E0AF
:101C0000032D0FD184495B206043774A02EBC0006B
:101C1000816207E0774801685B206043724A02EB0B
:101C2000C00081625B2161436F4A02EBC10191F800
:101C300020000BF02CFA5B2161436B4A02EBC101DF
:101C400001F124000AF078FC17F0020F1AD1754850
:101C500001885B206043644A02EBC000A0F81C11BD
:101C60005B21614302EBC101B1F81C010AF087FC62
:101C70005B2161435C4A02EBC101B1F81C010AF02F
:101C800074FC2BE001200AF0F4FD41105B2060435E
:101C9000554A02EBC000A0F81C115B2060431146BE
:101CA00001EBC000B0F81C01C0B95E4801885B20A0
:101CB000604302EBC000A0F81C115B21614302EB02
:101CC000C101B1F81C010AF05AFC5B216143464A8C
:101CD00002EBC101B1F81C010AF047FC5B20604334
:101CE000414901EBC000B0F81C014F490880BDE834
:101CF000F08170B50546012D04D1FFF71DFF4CF6AC
:101D0000CC4405E025B90320FFF716FF4DF6DD545E
:101D100020460AF08FFE70BD78B502460B460024BF
:101D200000940020FFE000EB800404EBC0043F4D72
:101D300015F83440012C4CD100EB800404EBC004B6
:101D400005EBC4042479012C43D100EB800404EB9F
:101D5000C00405EBC404B4F807400094BDF800408B
:101D6000944265D1012B22D100211DE000EB8004BB
:101D700004EBC0042D4D05EBC404241D01EB8105CB
:101D800004EB8504647944F0080500EB800404EB5F
:101D9000C004264E06EBC404241D01EB810604EBAF
:101DA000860465714C1CE1B20529DFDB52E000219D
:101DB0004EE000EB800404EBC0041C4D05EBC404B2
:101DC000241D01EB810504EB8504647924F00805EA
:101DD0002FE040E07C0100202D2D25642000000034
:101DE000A80100200000024088070020081B0020F6
:101DF00075848475A0010020758585757587877544
:101E000075898975758B8B75758D8D75758F8F75CA
:101E100075919175759595757599997500FF01087E
:101E2000B0E9000810EA000870010020600A0020F4
:101E300077E000EB800404EBC004FE4E06EBC40424
:101E4000241D01EB810604EB860465714C1CE1B294
:101E50000529AEDB78BD00EB800404EBC004F54D32
:101E600015F83440052C5CD1002158E000EB8004CB
:101E700004EBC004EF4D05EBC404241D01EB810508
:101E800014F82540012C48D100EB800404EBC00479
:101E9000E84D05EBC404B4F807400094BDF80040D9
:101EA00094423AD1012B1BD100EB800404EBC00417
:101EB00005EBC404241D01EB810504EB8504647962
:101EC00044F0080500EB800404EBC004D94E06EB97
:101ED000C404241D01EB810604EB860465711BE03C
:101EE00000EB800404EBC004D24D05EBC404241DB8
:101EF00001EB810504EB8504647924F0080500EB0F
:101F0000800404EBC004CB4E06EBC404241D01EB9B
:101F1000810604EB860465719CE74C1CE1B205293F
:101F2000A4DB441CE0B22828FFF6FDAE00BF91E719
:101F30002DE9F04180460E46154600240027012D6C
:101F400030D1FF2E0DD16621BB480BF059FEFF208A
:101F5000B94908700120FFF75CFD0620FFF761FD1D
:101F60001EE0B5480078FF2802D10020B249087071
:101F7000B1480078322809DAAF480178801C20F88F
:101F80001180801E0078401CAB49087029464046ED
:101F9000FFF7C2FE0420FFF73CFD0320FFF741FDE1
:101FA000BDE8F0813DBBFF2E25D1002400E0641C7C
:101FB000322CFCDB0020A04908700220FFF729FD2D
:101FC0000520FFF72EFD002413E000270EE0F72187
:101FD00004EB840000EBC400964A02EBC000001D35
:101FE00007EB870200EB820041717F1C052FEEDBBF
:101FF000641C282CE9DB00BFD2E7024692F8C43209
:1020000002F5E470435408467047F0B502460B46AB
:102010000026002400250021884890F8C40210F012
:10202000010F01D0FF20F0BD844890F8C40210F0E9
:10203000020F01D00020F6E7022B17D1282092FBD7
:10204000F0F0C6B2282092FBF0F700FB1720C4B2D4
:1020500004EB840000EBC400764F07EBC000001DCA
:1020600006EB860700EB8700457901E07448457967
:10207000724890F8C40210F0040F13D000210DE054
:102080006D48801C30F811006E4F3F88B84203D174
:1020900045F00805FF20C6E7481CC1B26648007835
:1020A0008842EDDC0020BEE7F0B5034600BF00BF6C
:1020B000282791FBF7F7FDB2282791FBF7FC07FBD8
:1020C0001C17FEB206EB860707EBC607DFF864C1F4
:1020D0000CEBC7073F1D05EB850C07EB8C077C78E5
:1020E000564F97F8C4721770012C17D1564F97F8B6
:1020F0003C70002F12DD00200AE0534F37F81070BB
:102100009F4203D1177847F010071770471CF8B2A9
:102110004D4F97F83C708742EFDC18E0052C16D144
:102120004A4F97F83C70002F11DD00200AE0474F1E
:1021300037F810709F4203D1177847F008071770DF
:10214000471CF8B2414F97F83C708742EFDCF0BD76
:1021500070B502460023394C2478022C69D1002046
:1021600087E000EB800404EBC004324D15F83440E6
:10217000012C2DD100EB800404EBC00405EBC4045A
:102180002479012C24D1934222D100211DE000EBBF
:10219000800404EBC004274D05EBC404241D01EBAF
:1021A000810504EB8504647924F0040500EB8004C8
:1021B00004EBC0041F4E06EBC404241D01EB810692
:1021C00004EB860465714C1CE1B20529DFDB4EE0AF
:1021D00000EB800404EBC004164D15F83440052CC8
:1021E00045D1002141E000EB800404EBC004114D17
:1021F00005EBC404241D01EB810514F82540012CD6
:1022000031D1934203D0A2F57F44FF3C2BD100EBA8
:10221000800404EBC004074D05EBC404241D01EB4E
:10222000810504EB8504647924F0040500EB800447
:102230000EE022E0600A0020A01A0020880700209B
:10224000081B00208601002088050020C60500200C
:1022500004EBC004FE4E06EBC404241D01EB810612
:1022600004EB860465714C1CE1B20529BBDB441C00
:10227000E0B22828FFF675AF11E0F64C2478012C67
:102280000DD1F54C2488944203D0A2F57F44FF3C45
:1022900005D1F14CA47824F00404EF4DAC7070BD6E
:1022A0002DE9F84F05460B460024002600220027A2
:1022B00091469246CDF800A04FF0040C614682E0B2
:1022C00001F1010A4FF0140B9AFBFBFE0BFB1EAA57
:1022D0000AF0FF0803EB010A4FF0280B9AFBFBFE04
:1022E0000BFB1EAA0AF0FF0203EB010A9AFBFBFAA2
:1022F0000AF0FF0702EB820A0AEBC20ADFF850B3CA
:102300001BF83AA0BAF1000F21D104F1010A0AF03A
:10231000FF04012C0BD107EB870A02EBCA0A4FF02E
:10232000C80B9AFBFBFE0BFB1EAA85F800A0022C33
:1023300045D107EB870A02EBCA0A4FF0C80B9AFB9C
:10234000FBFE0BFB1EAA0AF0FF00BDE8F88F02EBB4
:10235000820A0AEBC20ADFF8F8B21BF83AA0BAF117
:10236000060F2CD1B8F1000F29D002EB820A0AEB3C
:10237000C20A0BEBCA0A9AF804A0BAF1030F1ED1E5
:1023800006F1010A0AF0FF06012E0AD103EB010A49
:102390004FF0C80B9AFBFBFE0BFB1EAA0AF0FF09CD
:1023A0000DE0022E0BD103EB010A4FF0C80B9AFB94
:1023B000FBFE0BFB1EAA0AF0FF0ACDF800A001F1FC
:1023C000010A0AF0FF010CF1280A8A45BFF678AF2E
:1023D0001CB985F80090009802E0012C00D1484615
:1023E00000BFB2E72DE9FC4F07460A460024A0468D
:1023F00000218A46CDF804A0CDF800A04D1E00268D
:102400004FF0FF0A87F800A04FF004090023D6E040
:102410004FF0280A92FBFAFA9A444FF0050B9AFB08
:10242000FBFE0BFB1EA6CC46C0E002EB0C0A4FF0F5
:10243000280B9AFBFBFE0BFB1EAA0AF0FF0102EB26
:102440000C0A9AFBFBFA9A444FF0050B9AFBFBFE31
:102450000BFB1EA601EB810A0AEBC10ADFF8F0B103
:102460001BF83AA0BAF1050F08D001EB810A0AEB7C
:10247000C10A1BF83AA0BAF1000F54D101EB810A4E
:102480000AEBC10ADFF8C8B11BF83AA0BAF1050F90
:1024900030D101EB810A0AEBC10A0BEBCA0A0AF13F
:1024A000040A06EB860B1AF82BA0BAF1000F21D113
:1024B00004F1010A0AF0FF04012C0BD106EB860A95
:1024C00001EBCA0A4FF0C80B9AFBFBFE0BFB1EAADE
:1024D00087F800A0022C65D106EB860A01EBCA0A38
:1024E0004FF0C80B9AFBFBFE0BFB1EAA0AF0FF0085
:1024F000BDE8FC8F01EB810A0AEBC10ADFF850B19D
:102500001BF83AA0BAF1000F4CD115F1010A49D1DC
:1025100006EB860A01EBCA0A4FF0C80B9AFBFBFEDA
:102520000BFB1EA53EE001EB810A0AEBC10ADFF8B6
:1025300020B11BF83AA0BAF1060F33D1022C31DAE0
:1025400001EB810A0AEBC10A0BEBCA0A0AF1040A81
:1025500006EB860B1AF82BA0BAF1030F22D108F173
:10256000010A0AF0FF08B8F1010F0CD102EB030ACF
:102570004FF0C80B9AFBFBFE0BFB1EAA0AF0FF0AEA
:10258000CDF804A00EE0B8F1020F0BD102EB030A64
:102590004FF0C80B9AFBFBFE0BFB1EAA0AF0FF0ACA
:1025A000CDF800A00CF1010A0AF0FF0C09F1280A8D
:1025B000E2453FF73AAF03F1010A0AF0FF03052BAA
:1025C000FFF626AF9CB9002D05DADDF804A087F8E8
:1025D00000A0009812E03D7005F1280A4FF0C80BEA
:1025E0009AFBFBFE0BFB1EAA0AF0FF0006E0012C83
:1025F00004D1002D01DA009800E0E8B200BF77E7CF
:102600002DE9F84705460E46144600220021FF2713
:10261000884600238C46E8B28DF80000280A8DF821
:102620000100012E59D100BF54E001EB810000EB05
:10263000C100DFF81C9019F83000012848D101EBE7
:10264000810000EBC10009EBC000C07906E000008A
:10265000600A002088070020AC0100209DF800904F
:10266000484535D101EB810000EBC100DFF8F8945B
:1026700009EBC000007A9DF80190484528D10B462F
:1026800002E003F1280083B2A342FADBD8B24FF094
:10269000C80990FBF9FA09FB1A00C7B24FF000080D
:1026A000002210E001EB810000EBC100DFF8B894DC
:1026B00009EBC000001D02EB820900EB890080F8E5
:1026C0000680501CC2B2052AECDB3846BDE8F8870C
:1026D000481CC1B22829A8DB8AE0052E7DD1002242
:1026E00083E002EB820000EBC200DFF87C9419F873
:1026F0003000052807D002EB820000EBC20019F879
:10270000300000286FD100216BE002EB820000EB6B
:10271000C200DFF8549409EBC000001D01EB8109F1
:1027200000EB8900C0789DF80090484557D102EB36
:10273000820000EBC200DFF8309409EBC000001DFE
:1027400001EB810900EB890000799DF80190484573
:1027500045D101EB810002EBC000C7B207F1C80010
:10276000001B4FF0C80990FBF9FA09FB1A0083B26D
:10277000FE4890F8B502C830001B90FBF9FA09FB3F
:102780001A001FFA80FC4FF0000901EB810000EBFA
:10279000C100DFF8D4A30AEBC000001D02EB820ADF
:1027A00000EB8A0080F80690634501DD642B01DCB4
:1027B00038468BE74FF0020901EB810000EBC100C6
:1027C000DFF8A4A30AEBC000001D02EB820A00EBB5
:1027D0008A0080F80690FF2078E709E003E0481CB3
:1027E000C1B2052991DB501CC2B2282AFFF679AF8D
:1027F00038466BE7F0B5024600BF00BF0021282530
:1028000092FBF5F5EBB2282592FBF5F605FB1625B4
:10281000E8B200EB800505EBC005D34E16F8354055
:10282000012C22D100BF1DE000EB800505EBC005A7
:10283000CD4E06EBC5052D1D01EB810605EB86058A
:102840006D7945F0080600EB800505EBC005C64F25
:1028500007EBC5052D1D01EB810705EB87056E71A3
:102860004D1CE9B20529DFDB1DE0052C1BD100EB77
:10287000800505EBC005BC4E06EBC5052D1D03EB21
:10288000830605EB86056D7945F0080600EB8005AB
:1028900005EBC005B44F07EBC5052D1D03EB830702
:1028A00005EB87056E71F0BD70B5B14C24784CBB5B
:1028B00002F1C804641AA4B2C82594FBF5F605FB1E
:1028C0001644A3B2012B05DDC3EB0314C0EB440493
:1028D000A74D6C81012B01DDFF2A77D1A44C6478D0
:1028E000012C02D101F1280305E0A14C6478052CEC
:1028F00001D101F1C803C3EB0314C0EB44049C4DA8
:102900006C8163E09A4C2478012C5FD1984CA170C3
:102910006478012C38D1FF2A17D0914204D1C0F538
:102920009664934D6C8151E002F1C804641AA4B21C
:10293000C82594FBF5F605FB1644A3B2C3EB0314BC
:10294000C0EB44048A4D6C8140E0FF2A3ED1002454
:1029500001F1C805874E3678AD1BACB2282594FB33
:10296000F5F605FB1645ACB224B9C0F59665804E68
:10297000758108E0C4EB04154FF49666A6EB450597
:102980002D1A7B4E758121E0794C6478052C1DD180
:1029900041F27074241A764D6C81FF2A16D10024FE
:1029A00001F1C805734E3678AD1BACB2C82594FB57
:1029B000F5F605FB1645ACB2C4EB041541F2707692
:1029C000A6EB45052D1A6A4E758100BF70BDF3B5A3
:1029D000024600230020002492F8B612012902D1F9
:1029E00092F8B44207E092F8B612052902D192F8A3
:1029F000B54200E0FCBD282194FBF1F1CBB22821C7
:102A000094FBF1F501FB1541C8B292F8B612012909
:102A10006AD100EB800505EBC005534E06F8351072
:102A200000215EE0012600EB800505EBC0054E4F5E
:102A300007EBC5052D1D01EB810705F8276000EBAD
:102A4000800505EBC005484F07EBC5052D1D01EBC3
:102A5000810705EB87056E70002600EB800505EB0E
:102A6000C005414F07EBC5052D1D01EB810705EBA7
:102A70008705AE7101EB810500EBC505C82695FB06
:102A8000F6F706FB1755EEB200EB800505EBC00527
:102A9000354F07EBC5052D1D01EB810705EB8705BC
:102AA000AE7040F28F4600EB800505EBC0052E4F5F
:102AB00007EBC5052D1D01EB810705EB87056E8131
:102AC00000EB800505EBC005274E06EBC5052D1D67
:102AD00001EB810605EB8605BDF80460A5F80360EF
:102AE000491C05299EDB77E092F8B612052973D1BF
:102AF00000EB800505EBC0051B4E06F8351000EB1A
:102B0000800101EBC001354605EBC1014978491C44
:102B100000EB800505EBC00506EBC50569700125D6
:102B200000EB800101EBC00106EBC101091D03EBC5
:102B3000830601F82650052500EB800101EBC0015A
:102B4000094E06EBC101091D03EB830601EB86016B
:102B50004D7000EB800101EBC001034D05EBC1019D
:102B6000091D03EB830507E0600A002088070020A9
:102B7000081B00209901002001EB85018C700025C5
:102B800000EB800101EBC001F74E06EBC101091D0E
:102B900003EB830601EB86018D7141F24F7500EB6B
:102BA000800101EBC001F04E06EBC101091D03EBF2
:102BB000830601EB86014D8100EB800101EBC00132
:102BC000E94D05EBC101091D03EB830501EB85010F
:102BD000BDF80450A1F8035000BF0BE770B50246E2
:102BE000002001EB810404EBC104DF4D05EBC404BC
:102BF000241D02EB820504EB85046378052B7DD14F
:102C000001EB810404EBC104D74D05EBC4046478E7
:102C1000002C0FDD01EB810404EBC10405EBC404BF
:102C20006478641E01EB810505EBC105CE4E06EB11
:102C3000C5056C7001EB810404EBC104CA4D05EBC2
:102C4000C40464783CB9002401EB810505EBC1059F
:102C5000C54E06F83540002501EB810404EBC104A4
:102C6000C14E06EBC404241D02EB820604EB86046D
:102C7000657101EB810404EBC104BB4E06EBC40497
:102C8000241D02EB820604F8265001EB810404EBBC
:102C9000C104B54E06EBC404241D02EB820604EB0E
:102CA0008604A57101EB810404EBC104AE4E06EB72
:102CB000C404241D02EB820604EB8604258101EB8B
:102CC000810404EBC104A84E06EBC404241D02EBEE
:102CD000820604EB8604257101EB810404EBC10438
:102CE000A14E06EBC404241D02EB820604EB86040D
:102CF000E57001EB810404EBC10400E016E09A4E9C
:102D000006EBC404241D02EB820604EB86046581F5
:102D100001EB810404EBC104934E06EBC404241DB3
:102D200002EB820604EB8604A57077E0012B75D1D7
:102D3000002401EB810505EBC1058B4E06F83540FB
:102D4000002069E0002501EB810404EBC104864EFC
:102D500006EBC404241D00EB800604F8265001EBAA
:102D6000810404EBC104804E06EBC404241D00EB77
:102D7000800604EB8604657101EB810404EBC10459
:102D8000794E06EBC404241D00EB800604EB860498
:102D9000A57101EB810404EBC104734E06EBC4047E
:102DA000241D00EB800604EB8604258101EB8104E1
:102DB00004EBC1046C4E06EBC404241D00EB80063A
:102DC00004EB8604257101EB810404EBC104664E1B
:102DD00006EBC404241D00EB800604EB8604E570BA
:102DE00001EB810404EBC1045F4E06EBC404241D17
:102DF00000EB800604EB8604658101EB810404EBA3
:102E0000C104594E06EBC404241D00EB800604EBFC
:102E10008604A570441CE0B2052893DB70BD2DE943
:102E2000F0478046002500BF00BF00274F4880F8CC
:102E3000B282282098FBF0F0C6B2282098FBF0F16F
:102E400000FB1180C4B2494880F8CA4280F8CB62C6
:102E500004EB840000EBC400434901EBC000001DFB
:102E600006EB860100EB810090F801A004EB8400E2
:102E700000EBC4003C4901EBC000001D06EB8601DD
:102E800010F8210001284ED1BAF1050F0DD104EB45
:102E9000840000EBC400344901EBC000001D06EBC8
:102EA000860100EB8100877937E0BAF1010F34D158
:102EB00000251DE004EB840000EBC4002A4901EB6F
:102EC000C000001D05EB850100EB81008079B84250
:102ED0000CDD04EB840000EBC400234901EBC000CF
:102EE000001D05EB850100EB81008779681CC5B2E8
:102EF000052DDFDB00250EE004EB840000EBC400B1
:102F0000194901EBC000001D05EB850100EB8100B4
:102F10008771681CC5B2052DEEDB022F03DB21464D
:102F20003046FFF75BFE04EB840000EBC4000E4963
:102F300001EBC000001D06EB860110F82190B9F1ED
:102F4000000F09D0B9F1010F09D0B9F1020F08D073
:102F5000B9F1030F0ED10BE00120BDE8F08702208C
:102F6000FBE70320F9E70000600A00208807002043
:102F70000420F2E70020F0E7F0B5044600BF00BFF0
:102F8000282094FBF0F0C1B2282094FBF0F600FB5F
:102F90001640C2B202EB820000EBC200FC4E06EB10
:102FA000C000001D01EB810600EB86004578052D71
:102FB00023D10020F74E307002EB820000EBC200FC
:102FC000F34E06EBC000001D01EB810600EB86000E
:102FD0000089401C83B202EB820000EBC200EC4E81
:102FE00006EBC000001D01EB810600EB8600C06807
:102FF00010B30120E74E307021E0012D1DD159B9E9
:1030000002EB820000EBC200E14E06EBC000B0F81C
:103010005C00401C83B212E002EB820000EBC200B5
:10302000DB4E06EBC000001D4E1E06EB860600EBD5
:1030300086000089401C83B201E00020F0BD01261B
:1030400002EB820000EBC200D14F07EBC000001D75
:1030500001EB810700F82760002602EB820000EBFD
:10306000C200CB4F07EBC000001D01EB810700EB56
:103070008700C66002EB820000EBC200C44E06EB84
:10308000C000001D01EB810600EB86008079401C2A
:10309000C6B202EB820000EBC200BD4F07EBC000DE
:1030A000001D01EB810700EB870086711846C5E71C
:1030B00018B5014600BF00BF282091FBF0F0C2B256
:1030C000282091FBF0F400FB1410C3B203EB830043
:1030D00000EBC300AE4C04EBC000001D02EB820409
:1030E00000EB8400B0F803000090BDF8000018BDAC
:1030F00011B500BF00BF00BFA74B93F8CB2293F8D8
:10310000CA1201EB810303EBC103A14C04EBC3031F
:103110001B1D02EB820403EB8403587801EB81034F
:1031200003EBC1039A4C04EBC303B3F80730ADF8CB
:10313000003018BD2DE9FC470746884614461D4659
:103140004FF00006B146B2463246944B38464146EF
:103150000AF07EFECDE900010AF0CEFF824628206B
:1031600094FBF0F0C6B2282094FBF0F100FB114074
:1031700000F0FF0975B909EB890000EBC90084492B
:1031800001EBC000001D06EB860100EB8100C0F8DA
:103190000CA00FE0012D0DD109EB890000EBC90057
:1031A0007B4901EBC000001D06EB860100EB8100AE
:1031B000C0F810A00120BDE8FC8770B500208DE0AC
:1031C000002400EB800505EBC005714E06F8354084
:1031D00000EB800505EBC00506EBC5056C70002112
:1031E00079E001EB810400EBC402002500EB8004D0
:1031F00004EBC004664E06EBC404241D01EB8106FB
:1032000004F8265000EB800404EBC004604E06EB8B
:10321000C404241D01EB810604EB8604A27000EBBC
:10322000800404EBC0045A4E06EBC404241D01EBD9
:10323000810604EB8604258100EB800404EBC004C6
:10324000534E06EBC404241D01EB810604EB8604F7
:10325000A57100EB800404EBC0044D4E06EBC404E2
:10326000241D01EB810604EB8604257100EB80042C
:1032700004EBC004464E06EBC404241D01EB81069A
:1032800004EB8604E57000EB800404EBC004404EC0
:1032900006EBC404241D01EB810604EB8604E56003
:1032A00000EB800404EBC004394E06EBC404241D7B
:1032B00001EB810604EB8604256100EB800404EB3E
:1032C000C004334E06EBC404241D01EB810604EB5D
:1032D00086046571491C052983DB401C2828FFF6FC
:1032E0006FAF142300207DE0441C94FBF3F503FB37
:1032F00015449CBB062400EB800505EBC005244E5D
:1033000006F83540052400EB800505EBC00506EB0B
:10331000C5056C7000211EE001EB810400EBC402C6
:10332000022500EB800404EBC004194E06EBC40434
:10333000241D01EB810604F8265000EB800404EB09
:10334000C004134E06EBC404241D01EB810604EBFC
:103350008604A270491C0529DEDB42E0FFE7441F1A
:103360000A2594FBF5F605FB1644D4BB062400EBB6
:10337000800505EBC005064E06F83540052400EB38
:10338000800505EBC00506EBC5056C70002126E045
:10339000600A0020970100208807002000005940A3
:1033A00001EB810400EBC402032500EB800404EB75
:1033B000C004FE4E06EBC404241D01EB810604F894
:1033C000265000EB800404EBC004F84E06EBC40466
:1033D000241D01EB810604EB8604A270491C05291B
:1033E000DEDB401C2828FFF67FAF70BD18B5034612
:1033F000EF48B0F803000090EE4890F8CE029873C2
:10340000EC48007802281CD1BDF800001880E8487C
:1034100000895880E64840795873E5484078187329
:10342000012A07D1E2480089401E5880E24800681E
:10343000586002E0DE48C0685860002098600120B3
:1034400018BDDC48007801283DD10888BDF800404F
:10345000A04218D1D64800894C88A04213D1BDF8AB
:1034600000000880D24800894880D14840794873DC
:10347000CF4840780873CE48C0684860CC4800699F
:1034800088600020DCE70888BDF80040A04204D135
:10349000C74800894C88A04215D0BDF800001880AC
:1034A000C34800895880C24840795873C048407862
:1034B0001873BF48C068C14C20445860BC480069BC
:1034C00098600120BCE70120BAE70021BC4A1170D6
:1034D000012805D10121517040F27E41518107E060
:1034E000052805D10521B64A517041F23E7151813E
:1034F0000021B34A91700022B1490A71CA700021BB
:10350000AF4A11819171517170470020A8498870AC
:103510000021A7480171C1700020A5490881887168
:103520004871C8600861A34981F8CE0270472DE94F
:10353000F0410C460025002200BF0023418F90F887
:10354000CA7207EB870C0CEBC707DFF860C20CEB05
:10355000C7073F1D90F8CBC20CEB8C0C07EB8C0718
:103560007E78012E5BD190F8CB723F1D4FF0050C99
:1035700097FBFCF80CFB1877BBB290F8CA7207EB0C
:10358000870C0CEBC707DFF824C20CEBC7073F1D05
:1035900003EB830C07EB8C07FD6890F8CA7207EB0E
:1035A000870C0CEBC707DFF804C20CEBC7073F1D05
:1035B00003EB830C07EB8C073A891DB911B18F1A05
:1035C000012F02D08F1A012F5ED04F1E1FFA87FCE9
:1035D00090F8CA7207EB870808EBC707DFF8CC81C1
:1035E00008EBC7073F1D03EB830807EB8807A7F825
:1035F00008C090F8CA7207EB870C0CEBC707DFF81E
:10360000ACC10CEBC7073F1D03EB830C07EB8C072A
:10361000FC60694F3C600127C0F8347234E0052E2D
:1036200032D190F8CA7207EB870C0CEBC707DFF8B2
:103630007CC10CEBC7073F1D90F8CBC20CEB8C0C88
:1036400007EB8C07FD6890F8CA7207EB870C0CEB50
:10365000C707DFF858C10CEBC7073F1D90F8CBC276
:103660000CEB8C0C07EB8C073A89564F3F781FB94F
:1036700011B18F1A012F02D08F1A012F04D04E4F93
:103680003C600127C0F83472BDE8F081494981F8F7
:10369000CD02704738B50446002000904848B0F885
:1036A00003000090BDF80000A04207D10120FFF701
:1036B000EDFF4FF40030FEF729F802E00020FFF79D
:1036C000E5FF38BD0020404908808870C870704709
:1036D0002DE9F04F87B0824600BF4FF0000B00206D
:1036E0000690DAF800B09AF8040040B20690584606
:1036F0000AF0AEFC06460F4606980AF098FC804693
:103700000022324B0AF0A4FB0022304BCDE900012D
:103710000AF09EFB32463B46CDE902010AF0F1FA7F
:103720002B4A2C4BCDE904010AF092FB04460D46CE
:103730002046294607B0BDE8F08F2DE9F0478AB052
:10374000824600BF0AF5D87009F0EFF8BAF8BA015E
:103750000AF07EFCCDE90601BAF8BC010AF078FC5B
:1037600004460D4622462B46204629460AF070FBA9
:1037700006460F4600224FF08243DDE906010AF0BB
:1037800067FB32463B46CDE900010AF0D3FBCDE9A9
:1037900002010BF093F8804600220F4B0AF058FB11
:1037A0000E4A0F4BCDE904011CE00000600A002026
:1037B0001C1B0020880700209001002020A107008A
:1037C000081B002097010020AC0100200000F04001
:1037D000FA48CE3B1835B13D00002440AE47E17AAF
:1037E00014EE5C400AF02EFBCDE90801DDE908018A
:1037F0000AF063FC40B28AF8CE020AB0BDE8F08756
:103800002DE9F04F97B0824600BF00BF00BF00BF58
:103810004FF0000B0AF5D87009F087F8BAF8B2013A
:103820000AF016FC04460D46BAF8B6010AF010FC80
:1038300006460F46BAF8B8010AF00AFC80468946E7
:10384000BAF8BC010AF004FCCDE91201DDE912234B
:10385000104619460AF0FCFA42464B46CDE90A01E9
:10386000404649460AF0F4FA32463B46CDE90601A5
:10387000304639460AF0ECFA22462B46CDE90201E1
:10388000204629460AF0E4FACDE90001DDE90223E9
:103890000AF037FACDE90401DDE906230AF031FA2E
:1038A000CDE90801DDE90A230AF044FBCDE90C016A
:1038B0000BF004F80022FE4BCDE90E010AF0C8FA25
:1038C000FC4AFD4BCDE910010AF0BCFACDE9140128
:1038D000DDE914010AF0F1FB0FFA80FB584617B03E
:1038E000BDE8F08F70B506460D463046FFF725FF60
:1038F00096F9CE42F148C078401CF049C87014F1E6
:103900005C0F0ADB08460088A84201D1032070BD85
:10391000EA48847005800020F9E7E848C07801286B
:1039200004D1E648847005800120F0E7E348008870
:10393000A8420ED1E14890F90200A04201DADF4826
:103940008470DE480079012801D10220DFE70120E0
:10395000DDE7DA4890F90200A04204DAD748847023
:1039600005800120D3E70220D1E70020D349088059
:103970008870C8700871D24981F8D002D1490870A6
:1039800070472DE9F05F04460D46CF4ACF4B2046E5
:1039900029460AF0CFFA80460022CD4B0AF0CAFA37
:1039A00082468B46504659460AF0BFFB06460F46F4
:1039B00030463946BDE8F09F2DE9F04704460D46F4
:1039C00000BF204629460AF050FB0646BE4ABF4BC0
:1039D0000AF03EFA8046894640464946BDE8F087EF
:1039E0002DE9FC5F82460AF59C76C0CE4FF0FF3190
:1039F0007F20891BB84102DA361E67F58077304692
:103A00003946FFF7D9FF0022B24BCDE900010AF099
:103A10001FFA804689464FF09852AF4B40464946C0
:103A20000AF016FA04460D460022AC4B2046294601
:103A30000AF0A6FB06D30022A94B204629460AF02D
:103A4000B3FB01D2BDE8FC9F204629460AF0C0FB2B
:103A500083469AF815209AF81400594608F076FA29
:103A600022462B46CDE900010AF0EFF904460D4647
:103A700025F000459B4A30C200BFE3E72DE9F04F37
:103A800087B08246DAF83491DAF830814FF0FF31AE
:103A90007F20B1EB080170EB090004DA0022B8EBDB
:103AA000020869F5807940464946FFF785FF002204
:103AB000884BCDE902010AF0CBF9CDE904014FF0C2
:103AC0009852854BDDE904010AF0C2F904460D461F
:103AD0000022824B204629460AF052FB06D30022E0
:103AE0007F4B204629460AF05FFB02D207B0BDE8B3
:103AF000F08F204629460AF06BFB83469AF8152082
:103B00009AF81400594608F021FA22462B46CDE9CE
:103B100002010AF09AF904460D4625F00045724864
:103B200030C022462B46DAF890B15846DAF89411A4
:103B30000AF0E7F80AF5C87203C2DAF89801401CE7
:103B4000CAF89801DAF898010AF071FACDE9020191
:103B500002460B46DAF890B15846DAF894C161464D
:103B60000AF0E8F906460F46604AC0C2DAF89C112E
:103B7000481CCAF89C010AF5A87000EBC10230C2CB
:103B8000DAF89C01082802D10020CAF89C01DAF872
:103B9000A00108282AD100200290039083460EE05D
:103BA0000AF5A87000EBCB0103C9CDE90001DDE9FE
:103BB00002230AF0A6F8CDE902010BF1010BDAF8B5
:103BC000A0015845ECDCDAF8A0010AF030FA024610
:103BD0000B46CDE90001DDE902010AF0ABF9CDE9C0
:103BE0000201434ADDE9020103C204E0DAF8A00160
:103BF000401CCAF8A00100BF78E70278022A11D160
:103C000042680B2A02D042680D2A05D1DD233F22EB
:103C10001354402213542FE0CC233F22135440224C
:103C2000135429E00278032A1ED14268022A0ED0DA
:103C30004268032A0BD042680E2A08D04268112A33
:103C400005D04268142A02D04268132A05D1EE2317
:103C50003F221354402213540EE0CA233F22135430
:103C6000DE234022135407E00278012A04D1CC233A
:103C70003F22135440221354412280F83C2090F8F4
:103C80003C2009B1202300E000231A4380F83C20A7
:103C900088233D22135490F8B2323E221354027806
:103CA000022A2CD100F13C02124B1B8824E00000B8
:103CB00000002440AE47E17A14EE5C40B0010020E1
:103CC000880700209A010020FA48CE3B1835B13D04
:103CD00080842E410000D03F19DDB1410000E0BFDB
:103CE0000088D3404801002030010020400100201E
:103CF0003801002086010020A0F841301FE0027842
:103D0000032A02D00278012A19D100F13C02B0F84E
:103D1000AA32A0F841300278032A10D142680E2A54
:103D200008D04268112A05D04268132A02D042689E
:103D3000142A04D1FF23412213544222135400F1C8
:103D40003C02F74B1B88A0F84330704710B50021A8
:103D50005B224A43F34C04EBC20282F89A0210BD84
:103D60002DE9F04104460D4617461E4684F8C871F9
:103D700035B12A4604F5E47104F1450009F027FF46
:103D800005F10B00A4F8040131462046FFF735FF8A
:103D9000012E02D1022084F87A0284F87B62BDE809
:103DA000F0812DE9F041064614461D4636B1200A41
:103DB00040EA0567384609F030FB00BFD948007873
:103DC000012804D1FF220021084609F0A4FB304657
:103DD00009F0B8FBBDE8F0812DE9F04104460D463D
:103DE0000026B4F80401002204F13C0108F049FD6A
:103DF000B4F80401002108F057FD55B194F82C01E6
:103E00000206D4F8281142EA1127384609F005FBCA
:103E100000BF94F87A0218B141F2883009F0B8FB7B
:103E200094F87A122943C8B209F0FFFA00B10126CA
:103E30003046BDE8F08100B5A7B08022BA4901A89C
:103E400009F0C5FE182002F073FD09F084FC022081
:103E50008DF88C0009208DF891008DF890000220DB
:103E60008DF88D0000208DF8930028208DF88E00AD
:103E700003208DF88F0001208DF8920000208DF82E
:103E80009800032123A808F0B9FB9DF88C0000EBF3
:103E90004000A64911F820008DF884009DF88C00A0
:103EA00000EB400001EB8000001D9DF88D10491EC5
:103EB00050F82100229021A808F03EFB4FF48050DA
:103EC00009F0C3FC002201A97F2008F0DAFC0021E0
:103ED0007F2008F0E9FC002009F0A7FA002027B0B5
:103EE00000BD7CB502250126182002F021FD09F055
:103EF00032FC05EB45008D4911F820008DF80000DB
:103F000005EB450001EB8000001D711E50F82100FB
:103F10000190684608F010FB284609F04EFC00248A
:103F200003E0E0B208F036FB641C1F2CF9DD7CBD19
:103F300038B5002541F2AA10009009F0D3FA794C67
:103F4000002140F2C9100155794841794FF4E570DC
:103F500001557748417840F2CB10015574480089EB
:103F6000010A4FF4E67001557148017A40F2CD1014
:103F7000015594F8C60270B104F5E470B4F8C812A3
:103F8000A4F8CE11BDF80010A4F8D011002084F8D8
:103F9000C6020A250DE094F8C60250B94FF6FF702C
:103FA000A4F8C80204F5E470B4F8C812A4F8CE115D
:103FB0000825132060600023282229462046FFF7A9
:103FC000CFFE1320E06000212046FFF705FF10B16F
:103FD000002020610AE05648018956A009F015FD2D
:103FE000022002F062FD002009F0D2FA38BD10B5BF
:103FF0000320FDF7A1FDFFF79BFF10BD70B5002565
:10400000484C09F06FFA142060604948417940F249
:10401000C910015500232B2202212046FFF7A0FEE4
:104020001420E06000212046FFF7D6FE60B100BFFB
:1040300046A009F0EAFC00BF681CC5B2032D08DAEF
:10404000032002F032FD04E006206060002009F049
:104050009FFA70BD70B50025324C00BF09F042FADE
:104060000E2060603248417940F2C91001550023AA
:10407000232202212046FFF773FE002084F850021D
:104080000E20E06000212046FFF7A6FE60B100BFD1
:1040900033A009F0BAFC00BF681CC5B2032D0BDACF
:1040A000032002F002FDD9E7002506206060012010
:1040B0002061002009F06CFA70BD70B5044600253F
:1040C00000BF09F00FFA2B48817840F2C910015562
:1040D0000F2060600023242202212046FFF740FECB
:1040E000002084F850020F20E060012002F0DDFC87
:1040F00000212046FFF770FE60B100BF1EA009F04E
:1041000084FC00BF681CC5B2032D07DA032002F04F
:10411000CCFCD6E70025002009F03AFA70BD00007B
:104120008E0000208807002014EA0008B0E900088B
:10413000081B002074646F61203A20753136536586
:10414000714E756D3D2564210A0000007265747220
:104150006561742061636B206661696C21200A00CF
:1041600061736B2068656C70206661696C21200A40
:1041700000000000AC01002068656C70207265735F
:1041800070206661696C21200A0000002DE9F04171
:10419000804698F87A0220BB00BF98F83800C8B172
:1041A000D8F85812D8F8080140180446D8F80C007E
:1041B0000B280FD10022FA4BD8F870623046D8F89D
:1041C000741209F0F1FF05D20420D8F86012A1FBA7
:1041D000000100194FF0000213461046FFF7E1FD01
:1041E00002E0002088F87A02002088F8380098F869
:1041F000000030B1D8F80C00052802D00120C8F822
:1042000010000820C8F80400002009F0C1F9BDE83A
:10421000F08170B50546E34C09F064F9E248417954
:1042200040F2C9100155401C055511206060002363
:10423000262203212046FFF793FD002084F8500238
:104240001120E06000212046FFF7C6FD18B120468E
:10425000FFF79CFF09E000BFD4A009F0D6FB00BF28
:1042600006206060002009F093F970BD10B5CD4CB8
:1042700009F038F9CC48417940F2C91001550023C2
:10428000272201212046FFF76BFD002084F8500211
:104290001220E06000212046FFF79EFD40B100BFE4
:1042A000C8A009F0B2FB00BF2046FFF76FFF05E092
:1042B0000620606041F6583009F06AF910BDB9492E
:1042C000D1F8C00270472DE9F04704464FF00009CD
:1042D0000026B24694F8B272282097FBF0F100FB5A
:1042E0001170C6B2282097FBF0F000F0FF0A09F029
:1042F000F9F803F07CF90246FFF7E1FFB2EB0008A2
:1043000001D4404601E0C8F10000C5B2B3480570D1
:10431000C5F11E000A280CDC032140F2C91001552A
:10432000C5F11E00032835DC002009F031F9BDE895
:10433000F087002140F2C910015506EB860000EB22
:10434000C600A74911F83000052804D1022140F227
:10435000C91001551EE006EB860000EBC600A0491F
:1043600011F83000062815D106EB860000EBC600D8
:1043700001EBC000001D0AEB8A0110F821000328A0
:1043800004D1002140F2C910015503E0022140F29E
:10439000C91001554FF4E5700555394604F52D70E7
:1043A000FDF77EFF40F2CB110855394604F2B520E7
:1043B000FEF718F84FF4E671085505212046FDF781
:1043C0001CFE81464FF6FF708649088000230722B5
:1043D00009F101012046FFF7C3FC002084F85002D8
:1043E0000B20E06000212046FFF7F6FC48B100BF3B
:1043F0007DA009F00AFB00BF0B2060600020206157
:1044000007E0062060600120206142F2107009F090
:10441000BFF800BF8BE710B504460320FDF78CFB07
:104420002046FFF750FF10BD10B5044603F0DFF83B
:104430006E4908605C48417940F2C91001555A48FC
:1044400041784FF4E57001550023202203212046D6
:10445000FFF786FC062060600C20E060002120460B
:10446000FFF7BAFC80B100BF59A009F0CEFA00BF37
:104470000021C4F80811C4F80C11002084F8380099
:104480002046FFF783FE10E094F9CE1258480278D8
:1044900058A009F0BAFA062060600C20E060012004
:1044A000206141F6583009F073F810BD70B504462C
:1044B0000D46002609F016F8282140F2C9100155D2
:1044C000464801784FF4E570015504F5E470B4F8FE
:1044D0004011A4F8CB11FF2D13D194F8B602052892
:1044E00005D194F8B51240F2CD1001550CE094F8C6
:1044F000B602012808D194F8B41240F2CD1001554B
:1045000002E040F2CD100555062600232222314656
:104510002046FFF725FC002084F850020D20E060C3
:1045200000212046FFF758FC20B10D2060600020DC
:10453000206107E0062060600120206141F65830CC
:1045400009F026F870BD2DE9F0410446002700254A
:10455000002608F0C7FF03F04AF82F490860FFF76C
:10456000AEFE2D4909680A1A01D4104600E05042F7
:104570000646207802286CD1142E4FDD94F8CC0228
:10458000012808D194F8CA1294F8CB02FEF726FB52
:10459000002084F8CC022046FFF73DFFBDE8F08103
:1045A00000C0624088070020081B0020657863690E
:1045B000742073656E642073656363757373202163
:1045C0000A000000747865786369745F61636B5FEB
:1045D00073656E64206661696C2000008D010020A7
:1045E000600A002086010020734E20005801002040
:1045F0009A01002073656E6420696E697420202D15
:104600002D72737369203D25692020737461747560
:1046100073203D2564200A00500100200020FE493F
:104620000870FE480078012810D194F8B202FEF715
:104630003FFDFB49088094F8B202FEF79DFC054659
:10464000A4F8BA520020F549087007E0B4F8BA524D
:1046500004E02078032801D1F2480589C5F3072139
:1046600040F2CB100155401C05552078022816D188
:10467000012084F85002217894F8B202FDF7C5FCBD
:1046800040F2C9110855481C065594F8B21204F2BC
:10469000CD12E3480088FDF707FD062711E02078DA
:1046A00003280ED1DF48417940F2C9100155DD4899
:1046B00041784FF4E5700155DA49C968C4F8CD1165
:1046C0000A27022060600023212239462046FFF796
:1046D00047FB0220E06000212046FFF77DFB48B148
:1046E00000BFD1A009F091F900BF02206060002056
:1046F00020610AE00120CF49087006206060012097
:10470000206141F6583008F043FF00BFBDE8F0815A
:1047100010B50446B4F8AA0242F210710844A4F895
:10472000AA022046FFF70FFFC3480078002804DDE7
:10473000C1480078401EC049087010BD38B5044615
:10474000002508F0CFFE02F052FFBC490860B548D2
:10475000417940F2C9100155207801283ED041F23C
:10476000AA100090AF480089B5490988401A01286D
:1047700003D1B0480078012802D10020B149086077
:104780000020AC490870AF490968C4F8CA1104F5A3
:10479000E470A4490989A4F8CE1194F8C50258B16F
:1047A00004F5E470B4F8C812A4F8D011BDF80010F4
:1047B000A4F8D2110C250DE094F8C50250B94FF6BB
:1047C000FF70A4F8C80204F5E470B4F8C812A4F8A5
:1047D000D0110A2500209B49086000E0022504F161
:1047E0003C00B4F84011A4F84110002310222946DF
:1047F0002046FFF7B5FA062060600420E060012142
:104800002046FFF7E9FA80B100BF8FA009F0FDF85C
:1048100000BF0021C4F80811C4F80C11002084F86E
:1048200038002046FFF7B2FC0BE0002084F8C502F8
:104830000120206141F6583008F0AAFE012002F064
:1048400034F938BD7CB5044602F0D1FE064608F0C6
:1048500049FE40F2CD104FF48671D4F80821C4F817
:10486000C921095D0155401D4FF48A71D4F810210A
:10487000C4F8CE21095D0155744AD4F828111140BD
:10488000D4F82C01C0B2CDE90010B4F81C01DDE968
:104890000032C01842F10001CDE90001DDE900104D
:1048A000C0B2CDE9001040F2D7100099C4F8D3117E
:1048B0009DF80410015504F13C00B4F84011A4F82F
:1048C0004110032060600023292210212046FFF7B9
:1048D00047FA01212046FFF77FFA58B10021C4F8BA
:1048E0000811C4F80C1102206060A060002008F0DC
:1048F00078FB7CBD062060600320E06041F6583004
:1049000008F046FE01202061207803280BD002F039
:104910006EFE0546022002F0C8F84D480068281ACD
:104920004B49086008E02078032805D149A009F028
:104930006CF80120C4F8300200BFDAE710B5044675
:104940003849C968C4F8C91100232A220521204624
:10495000FFF706FA00212046FFF73EFAE8B100BF54
:1049600043A009F052F800BF0021C4F80811C4F8B0
:104970000C11C4F82811C4F82C1194F87802401CCA
:1049800084F8780294F87802032802DA052060603F
:1049900016E02046FFF7FAFB12E0012025490870D7
:1049A000062060600520E06094F87802401C84F8DE
:1049B00078020021C4F82811C4F82C1102202061CB
:1049C00010BD10B504462EA009F01FF801201249B1
:1049D0000870002033490870182008F012F8B4F865
:1049E000220208F027F83048008808F02BF82E48FB
:1049F00001882EA009F009F82B480088A4F8A80225
:104A000004F13C0028490988A4F843100B20606099
:104A100094F88D0252E00000780100207901002016
:104A200086010020081B002020706F6C6C206661DE
:104A3000696C200096010020980100206001002090
:104A40009401002090010020524E200000FEFFFF44
:104A50007401002072616E676520746F2073756247
:104A60005F73746174696F6E206F766572210000E8
:104A70002D7265706F7274206661696C2000000091
:104A80002A2A2A2A2A2A2A2A2A2A20544147202A3C
:104A90002A2A2A2A2A2A2A2A2A2A2A2A2A2A200AA0
:104AA00000000000A01A00208E00002009204144D0
:104AB0004452203D202564200A00000008F03BFB02
:104AC000052008F000FB10BD10B504464DF6DD5082
:104AD000A4F82202FC480088A4F8A802182007F0D5
:104AE00090FFB4F8220207F0A5FFF748008807F00E
:104AF000A9FF04F13C00F4490988A4F84310002000
:104B000084F8380008F02EFB012084F88D0294F818
:104B10008D0208F010FB002008F03AFD2046FFF758
:104B200035FB10BD00B5ADF57B7D4FF47A7101A862
:104B300008F06AFA401C04D100BFE4A008F065FF49
:104B400000BF1021E64804F03BFB012001F0ADFF5F
:104B50001021E34804F032FB012001F0A6FF0220FF
:104B600008F0CFFBDF48008807F0FFFC002008F0CA
:104B700038FA0121DC4808F067FD0DF57B7D00BDAA
:104B800070B504460E4602F032FD05462078032833
:104B900012D1E068032802D1FCF7C2FF70BDE068C3
:104BA000052819D1D1480068291AD1A008F02DFF95
:104BB0000120C4F83002F1E7E0680B2803D100209F
:104BC000D049087008E0E068022805D104F5847037
:104BD00003C804F5847203C22046FFF7D7FA00BF6A
:104BE000DCE70246002002290DD1102A05D0202A38
:104BF00002D02A2A04D101E000BF00BF012001E059
:104C0000002000BF33E0032915D1262A0DD004DC93
:104C1000202A07D0232A0BD106E02A2A03D02B2AE8
:104C200006D103E000BF00BF00BF00BF002001E0CD
:104C3000012000BF1BE0012918D1292A0DD006DC74
:104C4000212A09D0232A09D0262A0CD107E02B2AB1
:104C500006D02C2A07D104E000BF00BF00BF00BF70
:104C600000BF012001E0002000BF00E000207047ED
:104C7000A549C1F8AC0270472DE9F34F95B0044641
:104C80006068022807D0082809D00B2872D1204676
:104C9000FFF719FBFEE32046FFF755FCFAE71698ED
:104CA000002868D0022804D0042876D0062875D1C0
:104CB000F1E304F19F054FF00009B5F807001390E8
:104CC000B5F80500129095F80990AE78BDF84C0043
:104CD000A4F8400121784846FFF783FF58B9002027
:104CE00008F056FC002213461046FFF75AF8002041
:104CF00017B0BDE8F08F4846B9F1240F5DD00EDC47
:104D000021286FD006DC07286DD010286CD0202811
:104D10006BD1E0E1222869D02328F9D108E02538B9
:104D2000072862D2DFE800F063699D61FDFC3B006B
:104D300004F52070BDF84C10A4F8AA12734800883E
:104D4000B4F8AA12884217D17048807810F0040F86
:104D500002D1FEF7B7FC1CE04FF48050FCF7D6FC04
:104D60000120FCF756FEA87A684988702046FFF7B4
:104D70000DFA0EE0FDE3FDE34FF48050FCF7C6FCB6
:104D80000120FCF746FEB4F8AA0260490880A87A20
:104D900088702046FFF791F921E2ECE3ECE34FF451
:104DA0008050FCF7B3FC012059490870BDF84C0055
:104DB00056490880A87A8870EEE7A87A55490870A5
:104DC0000846007810F0040F05D15348407920F0D0
:104DD00004005149487194F8CF0240F0010084F872
:104DE000CF02D9E7FCE14DE034E3FDE396E10A218F
:104DF0004FF40070FCF7B8FCCEE7BDF84C00A4F807
:104E0000AA0242480088BDF84C10884217D13F489A
:104E1000807810F0020F02D1FEF754FC1EE04FF430
:104E20008050FCF773FC2020FCF7F3FDBDF84C002C
:104E300036490880A87A8870E87AC8700EE04FF486
:104E40008050FCF763FC2020FCF7E3FDBDF84C002C
:104E50002E490880A87A8870E87AC870FFF706FAA9
:104E60009AE7A87A10F0020F05D12B48407920F07C
:104E700002002949487194F8CF0240F0100084F8EC
:104E8000CF0289E70027BB46B8462078032800D028
:104E900082E7AF7A95F80BA0002020490870A87B24
:104EA00010F0010F3ED01C48407910F0080F04D1DB
:104EB00005214FF40070FCF757FC1748407940F08B
:104EC00008001549487179E08E0000204641494CA0
:104ED000454420746F2057414B452055500A00002F
:104EE0000000024070010020804002005C010020B0
:104EF000726576465F73656E645265705F593D25D5
:104F0000642020007801002088070020AC010020E8
:104F1000A40100208C010020081B00209A01002021
:104F200087E3A9E3A87B10F0040F33D00020119091
:104F3000804622E04FEA4800801D05F1090108443F
:104F400000881190B4F8A802BDF84410884210D12E
:104F5000FD48407910F0080F0BD005214FF4007088
:104F6000FCF702FCF848407940F00800F649487127
:104F700006E008F1010000F0FF08A87B4045D9DCFD
:104F800000BFA87B28B9F048407920F00800EE491E
:104F9000487113E0A87B10F0020F0FD0EA48407967
:104FA00010F0080F04D005214FF40070FCF7DCFB73
:104FB000E548407920F00800E3494871A87BFCF7F8
:104FC00046FD00287FD102F012FB0246FFF777F979
:104FD000101AA4F8BC020020DC490870DA484078B6
:104FE000012802D195F80CB005E0D7484078052893
:104FF00001D195F80DB0D448007801281ED1D448CD
:10500000007801281AD1D048C078E979884215D1B2
:10501000CD480179287A814210D10120FEF736FB74
:10502000FF2231465046FDF73FFCCA480278314620
:10503000C9A008F0EAFCFCF773FDADE6C2480078B1
:10504000A8BBBDF84C102046FEF74CFCCE490870BA
:1050500008460078022803D12046FFF797F8FEE3C0
:10506000C9480078032802D1FCF75AFDF7E3C74886
:10507000C078022804DA5A4631465046FDF714FC3F
:10508000032F1AD02FB1022F13D1AF484078052833
:105090000FD10C20606004F52070B5F80710A4F85B
:1050A000AA12012001F001FD2046FFF7BDF911E031
:1050B00009E02046FFF76AF80CE0032F0AD12046EA
:1050C000FFF764F806E0A97BB1A008F09EFC20463B
:1050D000FFF75CF8C3E3FF272A7B697B02EB012023
:1050E0000D206060E87A84F8B602B4F84001B24955
:1050F0000880B4F8400180B1FF2F04D1B4F840110A
:105100002046FDF764FC39462046FFF7CFF9AA7820
:10511000BDF84C10A9A008F078FCA0E30020119085
:1051200095F80B80AF7BA8891190BDF84400A84981
:10513000098888422FD184488670E8798249C870EE
:10514000297A81480171B4F8BC02A24908803A4624
:1051500031464046FDF7A8FBBDF84C0000907A4868
:1051600043893A4631469CA008F04FFC012084F860
:10517000D00286490871FEF789FA8348007818B191
:105180008248C078032801DBFCF7CAFC0220A24950
:105190000870704807706C48407910F0040F07D011
:1051A00094F8CF0210F0010F02D1FEF753FF0CE08C
:1051B0006548407910F0020F07D094F8CF0210F044
:1051C000100F02D12020FCF7A1FA6F48007830B10F
:1051D0006E48C078032802DA2046FEF7D7FF3EE388
:1051E00002F005FA8D49086084F8B262BDF84C00FF
:1051F000A4F8AA02BDF8480075490988884206D07B
:10520000BDF84800A0F57F41FF3900D027E32078A2
:10521000032813D14C48007880B9BDF848006C4988
:105220000988884209D101204749087008468670DC
:10523000B5F80710A0F8031000E000BF0120FEF74A
:1052400025FA2078032839D140480078012811D167
:10525000FFF735F871490988081AA4F8BC02012043
:1052600084F8B802E87AFF223146FDF71DFB0020E2
:1052700036490870A87AFF280FD13348407910F0DA
:10528000080F0AD14FF40070FCF740FA2E4840791D
:1052900040F008002C49487110E0A87A70B92A48FB
:1052A000407910F0080F09D04FF40070FCF72EFA87
:1052B0002548407920F008002349487104F1B004E2
:1052C000D4E91801C4E91C014FF00001544A1160EF
:1052D000516004F5D87284CAD4E91C108B18784147
:1052E0004F49D1E900219A1848414D49C1E90020B0
:1052F00004F5D8720CCAD4E91C1089185841C4E9C5
:105300001E1014F8B00D032806D1A87BFCF79FFBF4
:10531000A87B84F8C40294E02078012813D1287B6C
:105320004FF6FF7101EA00206087618F687B0844B7
:105330006087E87A3B494870D5F80E00C860084697
:10534000B5F8071070E07CE0081B00207901002010
:105350005C00002099010020202D2D2D2D2D746F33
:10536000662070726F636573732062757420726556
:105370007620626C696E6B2D2D2D2D736C6F743DD4
:105380002564207C25640A009A010020B0010020D9
:10539000202D2D2D2D2D2D2D206368616E6765200C
:1053A0006465762074797065207374617475733DDB
:1053B0002578200A00000000860100202061646436
:1053C00072203D2564202C736C6F743D25640A00A7
:1053D0008E0000209C0100202D696E20626C696E99
:1053E0006B202120207265765F637572736C6F7419
:1053F000203D2564202C736C6F743D2564202C6D3A
:1054000079736C6565703D256420207374617469DF
:105410006E6F3D25640A0000980100207401002091
:10542000680100201C1B0020A0F80310608FFC49BD
:105430000881A87A48710846C06810B10120C4F8F4
:1054400034022046FEF779F9042060602046FFF719
:1054500075F904E24FF000080027BA4600201190C9
:1054600010908346E87A04F1B00484F8A301D4E9EB
:105470001801C4E91801D4E9183004F5D87106C937
:1054800059185041C4E91E10E64AD4E91E101140D3
:10549000C0B201E05BE252E2C4E91E10032044F80E
:1054A000AC0C14F8B00D022867D194F8CB8294F8B4
:1054B000CA72A87ADA49487107EB870000EBC70087
:1054C000D94901EBC000001D08EB880100EB810009
:1054D000407805281DD1002107EB870000EBC700AD
:1054E000D14A02EBC000001D08EB880200EB8200ED
:1054F0008171CB48417907EB870000EBC700CA4AAE
:1055000002EBC000001D08EB880200EB8200417135
:105510003BE007EB870000EBC700C34901EBC0008D
:10552000001D08EB880100EB8100407801282CD198
:105530004FF0000A26E0002107EB870000EBC700D0
:10554000B94A02EBC000001D0AEB8A0200EB8200A0
:105550008171B348417907EB870000EBC700B24A7D
:1055600002EBC000001D0AEB8A0200EB82004171D1
:1055700004E0EDE1E4E17FE1E7E139E00AF1010077
:1055800000F0FF0ABAF1050FD5DB07EB870000EB4F
:10559000C700A54901EBC000001D08EB880100EB26
:1055A000810040789E494870B5F80F001090BDF812
:1055B000401007EB870000EBC7009B4A02EBC000DE
:1055C000001D08EB880200EB82000181BDF840005D
:1055D0006087BDF8400092490881D5F80BB0BBF157
:1055E000000F05D0594600E032E12046FDF79FFF4D
:1055F0002046FEF7A2F82046FFF724F9207802287B
:1056000016D1B5F811001190BDF84400A0F57F4106
:10561000FF390DD000200F90B5F813000F90BDF8A2
:105620004420BDF83C10BDF84C00FBF759FA00BF10
:1056300015E17B49D5F80A00C8600120C4F83002A2
:10564000BDF84C00002104F5287203C2E8797449C2
:10565000C870297A724801710146C86808F0F8FCE0
:10566000074600233246FDF765FD01F0C0FF824684
:105670002046FEF7D0FEF2E000210891099100BF1C
:10568000069107910491059100BF00BF01F0AFFFA3
:105690006649086004F58474D4E90278D4F860118E
:1056A000D4F86401C91940EB0800C4E908105D4B47
:1056B000D4E908101940C0B2C4E90810D5F80A109E
:1056C0000691A87B8DF81C00D5F80F100491E87C9A
:1056D0008DF8140069690891287E8DF82400DDE9B1
:1056E000062CDDE90430991A60EB0C00C0B2CDE95C
:1056F0000C10D4E90632D4E90010C91A60EB02009C
:10570000C0B2CDE90A10DDE90A23DDE90C01B0EBF6
:10571000020C61EB0300C0B2CDE902C0D4E9001372
:10572000791A68EB0300C0B2CDE91010DDE9043C42
:10573000DDE90820D11A60EB0C00C0B2CDE90E10F3
:10574000DDE90F31119A0E98081A62EB0301C9B214
:10575000CDE90001DDE90030DDE90212C918504150
:10576000C0B2C4E90A10A4F584742046FEF786F995
:10577000BDF84C00002104F5287203C220780328EC
:1057800037D101202A49087000222A4B2A4903C92F
:1057900008F05EFB824608F0AFFC2849C860084666
:1057A000C0682749086025480089264908800020EC
:1057B0002549087021480189032091FBF0F200FB84
:1057C000121090B12148007878B9002213461A4986
:1057D00003C908F0E9FC08D205206060002084F8C5
:1057E00078022046FFF7AAF819E02046FEF790FF5E
:1057F00015E02078012812D100220E4B0E4903C972
:1058000008F026FB824608F077FC0549086107206E
:1058100060602046FEF7BAFC0120C4F830021EE0AA
:105820001C1B002000FEFFFF600A00205C0100201E
:105830005B0000200000594030010020081B0020C0
:105840009001002094010020960100209801002082
:10585000002084F838002046FEF798FC00BF00BF07
:1058600094F8500238B9207828B9002084F838001C
:105870002046FEF78BFC69E0E06A401CE0620020F5
:1058800020610120FFF7F4F92078032802D0207866
:1058900001281ED12078032804D1E068022801D114
:1058A000606049E00020FFF7E3F92078032805D184
:1058B000E068032802D1FCF733F947E00020E062FA
:1058C00007F066FE002084F87B022046FEF75EFCAF
:1058D0003CE0207802282FD194F8B30210B90B20B5
:1058E000606010E094F8B30201280CD102206060DF
:1058F000E0680B2801D1606005E0E068032802D170
:105900000020FFF7B5F960680B2812D101F06FFE97
:105910000246FEF7D4FC161A01D4304600E070426D
:1059200085B2112D05DAC5F1110085B2284601F0C6
:10593000BCF807F0D7FD00BF0020169006E000BFBE
:10594000206908B90120206100E000BF00BF00E02D
:1059500000BF00BF2069FFF7CBB9FE4A1070704747
:10596000FC4800787047FB48D0F8300228B100208E
:10597000F849C1F83002012070470020FCE7F548E3
:1059800090F8D10228B10020F24981F8D10201201B
:1059900070470020FCE70120EE4981F8D1027047F2
:1059A000EC48D0F8340228B10020EA49C1F83402AA
:1059B000012070470020FCE70020E6494860C860ED
:1059C000704710B5002400215B206043E14A02EBE0
:1059D000C000C1625B20604302EBC00080F820126F
:1059E0005B226243DB4B03EBC202C2F89011C2F8A8
:1059F00094115B2060431A4602EBC000C0F8981176
:105A0000012007F03BFE00215B206043D14A02EBFE
:105A1000C00080F820125B20604302EBC000C0F899
:105A2000A0115B20604302EBC000C0F89C115B201A
:105A3000604302EBC00001635B20604302EBC000E7
:105A4000416310BD2DE9FE4305460024002001906E
:105A5000029000260027804607F044FD0120FFF752
:105A600007F9287802287DD169785B206043B94A1C
:105A700002EBC00080F81A1100220121684606F0EE
:105A800022FF6888052801D1052701E0022700BF11
:105A900000BF022F67D15B206043AE4901EBC0001D
:105AA00090F87F0202287DDA01A806F08CFF9DF8AD
:105AB00004009DF8051000EB01209DF8061000EB96
:105AC00001409DF8071000EB01669DF808000021D9
:105AD0005B2262439F4B03EBC20202F5887203C252
