:020000040800F2
:1000000088330020CD2C0008D52C0008D72C000800
:10001000D92C0008DB2C0008DD2C000800000000B3
:10002000000000000000000000000000DF2C0008BD
:10003000E12C000800000000E32C000875350008E2
:10004000E72C0008E72C0008E72C0008B53D000865
:10005000E72C0008E72C00089D320008B3320008A6
:10006000E72C0008D1320008E72C0008E72C000834
:10007000E72C0008E72C0008E72C0008E72C000814
:10008000E72C0008E72C0008E72C0008E72C000804
:10009000E72C0008E72C0008E72C0008EF320008E6
:1000A000E72C0008E72C0008E72C0008E72C0008E4
:1000B000E72C0008E72C0008E72C0008E72C0008D4
:1000C000E72C0008E72C0008E72C0008E72C0008C4
:1000D000E72C0008DF700008E72C0008E72C000878
:1000E000E72C0008E72C0008E72C0008E72C0008A4
:1000F000E72C0008DFF80CD009F0F2FA00480047BE
:10010000B109000888330020EFF3108072B6704701
:1001100080F31088704700000120FE49088870476E
:1001200010B500BF08F05EFA0121FB4804F0FEFFA5
:100130000128F7D010BD704770B505460E4605B1D1
:1001400006B970BD00240CE0295DF44806F0ADFE50
:1001500000BF4021F14806F058FF0128F9D1601C8A
:10016000C4B2B442F0DB00BFEBE72DE9F05F054617
:100170008B4616461F4615B1B6F5007F09DD00BF58
:1001800032462946E6A008F02CFE00BF0020BDE85C
:10019000F09F2C4604F10C08052088F8000001208F
:1001A00088F80100E5480088A8F80200E4480088C3
:1001B000A8F80400A8F806604D2020704120607067
:1001C00000BFA07820F07000A070A07840F0300050
:1001D000A07000BF00BFA07820F00800A070A07839
:1001E00040F00800A07000BF00BFA07820F007001A
:1001F000A070A07807F007010843A07000BF00BFFF
:10020000A07820F08000A070A07840F08000A0705E
:1002100000BF012F07D1CB480088000A2071C948D0
:10022000007860710BE0C8480088000A2071C64859
:1002300000786071C4480088401CC3490880BF48EA
:100240000088000AA071BD480078E071002020728B
:10025000607256B1BBF1000F07D0012F05D03246B6
:10026000594605F1140008F0BAFE032F01D1722699
:1002700002E0012F00D1002606F10A001FFA80F9E2
:100280004FEA1920A07284F80B9006F1120081B297
:100290004FF6FF72A81C08F055FE82464FEA1A215D
:1002A00006F114002954401C05F800A009F10C00C7
:1002B00081B2A648FFF740FF09F10C00C0B266E723
:1002C00010B5A3480078002810DDA1480078C000D0
:1002D000A049488000209E4908709E484088001D23
:1002E00082B200239B499948FFF73FFF10BD70B5CC
:1002F000994D2C1D1C206880092068701F202870D3
:100300008F48008860808D48008820801420E0712C
:10031000042020710320607190480078A0718F48FC
:100320000078401C8D49087014228DA104F108004A
:1003300008F055FE6888001D82B2002329468348D4
:10034000FFF713FF70BD2DE9F84306460F4606F18F
:100350001404182F09D200BF63782278394686A08A
:1003600008F03FFD00BFBDE8F88320781F2800D0CB
:10037000F9E704F10408607807283FD006DC042878
:100380002AD0052807D006283DD112E0822836D091
:10039000832838D134E00122FF21002000F006FE3E
:1003A0004FF4007000F09CFB4FF4806000F0AFFB56
:1003B00029E00022FF21104600F0F8FD4FF4007004
:1003C00000F08EFB4FF4806000F0A1FB71494FF408
:1003D000806000F0B3FB16E000250020009000BF15
:1003E00005E0022000FB0580008800906D1C6088FD
:1003F00000EBD071B5EB610FF3DB04E003E002E04A
:10040000FFF775FF00BF00BF00BFACE72DE9F0416B
:1004100005460E4617464FF00008002417E05E48D8
:1004200030F8340088B15C4830F83400A8420CD170
:10043000594820F8345000EBC4004680564800EB81
:10044000C40087804FF0010803E0601CC4B20A2C8E
:10045000E5DB00BFB8F1000F1CD1002417E04E48C7
:1004600030F8340088B94C4820F8345000EBC40010
:100470004680494800EBC400878048480078401C0B
:10048000464908704FF0010803E0601CC4B20A2C12
:10049000E5DB00BF414800780A2807DB4FF4003055
:1004A00000F035FB4FF4003000F01AFBBDE8F0819E
:1004B00070B53A480078002875DD384800780A2879
:1004C00071DC254C251D082060701F2020703348EA
:1004D0000078C0006080002009E005EBC0012E4AD2
:1004E00002EBC00213680B6052684A60401C2B4943
:1004F00009788842F1DB6088001D82B2002316492A
:100500001248FFF732FE5021234808F081FD0020F9
:10051000224946E002FF0108000402400038014081
:100520004275696C64204661696C6564207062750F
:1005300066202558206C656E25640A002400002082
:1005400008000020220000200C000020740300207E
:100550001000002074050020740100200A00002013
:100560004D535353352E302D313730345F52656C37
:10057000656173650000000065727230206C656E05
:10058000203D25642070743D257820203B6D743D0E
:1005900025640A00C0D401002401002021000020AD
:1005A00001E0087002E00020AB49087070BD7CB526
:1005B00004460D4616461F208DF8000003208DF8D6
:1005C0000100ADF804408DF80660E8B28DF8070030
:1005D0000420ADF80200BDF80200001D82B2002325
:1005E00069469E48FFF7C1FD7CBDF8B506460C463E
:1005F00004B9F8BD204604EBD071C1F347070022CF
:10060000FF21BDF8000000F0D1FC00250CE0022025
:1006100000FB05600088009001220021BDF8000069
:1006200000F0C4FC681CC5B2BD42F0DB4FF4806032
:1006300000F007FB4EF660214FF4806000F07EFA78
:1006400000BFD6E710B500F02FFA044614F4803F3F
:1006500014D008F071F982480078012802D181494C
:10066000087002E000207F490870022000F04FFA75
:10067000022000F035FA00207949087014F0020FCA
:1006800012D07848007802F02AF801F05EF90328C9
:1006900003D001F05AF9012806D1724800780128E8
:1006A00002D100206F49087014F4003F07D0FFF713
:1006B000FFFE4EF660214FF4003000F03FFA14F4D4
:1006C000007F06D000F0D6FD19214FF4007000F035
:1006D00035FA14F4806F03D04FF4007000F0B1FAD3
:1006E00014F4002F0ED0FFF7EBFD4FF4FA714FF426
:1006F000002000F023FA01F037F918B100F022FFD2
:10070000FFF7DEFD14F4805F3AD002F09BFD01207C
:1007100054490870022000F0E3F95348807810F043
:10072000040F03D0012000F061FB40B94E488078EF
:1007300010F0100F0DD04D480078012809D100208D
:100740004A49087048498A780888FF21FFF72FFF37
:100750000EE04548807810F0020F09D0202000F00C
:1007600045FB28B1404B9A78D9781888FFF71FFFCE
:10077000002008F037F900221346104600F0AEFBC7
:1007800014F4802F16D03A4801880088401C384A5B
:100790001080182091FBF0F200FB121020B9FFF737
:1007A000A6FD34A008F01DFB41F288314FF48020F3
:1007B00000F0C4F910BD10B5002007F0C9FE0520F7
:1007C00007F0ABFE052140F6411007F024FE10BDF6
:1007D0004FF400412B4804F0C1FC4FF480512948EC
:1007E00004F0BCFCAFF2A14006F068FC50212648A2
:1007F00008F00EFC1F2025490870012048700020D9
:10080000234908704FF47A714FF4002000F096F9F4
:10081000C8214FF4802000F091F94FF47A714FF421
:10082000003000F08BF94FF4803000F059F9FFF7F9
:100830005EFD0FE001F00DFF012805D1022000F060
:1008400066F9022000F04CF902F090FE00F034FA54
:10085000FFF7F8FEEEE700002100002074030020FF
:100860001200002013000020C8000020C600002055
:10087000180000207265706F7274206C696E6B0ACC
:100880000000000000000240240100207405002048
:10089000100000207CB5182002F088F801F087FCD9
:1008A00004465E4884421AD010215D4804F058FC8A
:1008B000012002F02AF91021594804F04FFC0720CA
:1008C00002F023F9322002F020F901F070FC044616
:1008D0005248844201D080177CBD08F02BF902F009
:1008E00045F85048006801F02DF801F008FB054676
:1008F000002D02DA4FF0FF30EEE7082002F056F844
:1009000001F055FC04464548844201D08017E3E7D6
:100910004448006801F016F84348006801F030F8D8
:1009200000204249086008460068C0EBC00040490A
:10093000085C8DF800003D480068C0EBC00008442A
:10094000C0788DF8010039480068C0EBC000084449
:1009500040788DF8020035480068C0EBC0000844BC
:1009600040798DF8050031480068C0EBC0000844AC
:1009700080798DF806002D480068C0EBC00008445F
:1009800080788DF8030029480068C0EBC000084457
:1009900000798DF80400684601F00DFC4FF4FA7000
:1009A00001F0CCFD0020234901F0E4FD204693E74F
:1009B00010B5002402F0DAFA08F0DEF90120194936
:1009C00008600620012181401B4A430942F8231098
:1009D00000BF01F0CBFFFFF75DFF401C0DD100BF52
:1009E00016A008F0FEF900BF06E002F032FC02F0AB
:1009F0003FFCC82002F089F8F7E70620012181407A
:100A000042094FF0E02303EB8202C2F8001100BF5D
:100A100002F0B6FDFFF7DCFE002010BD3001CADE9B
:100A20000000024030000020740000202C00002054
:100A3000340000200000144080E100E0496E697439
:100A400020647731303030206572726F720A000096
:100A50000146002006E0012282400A4200D003E065
:100A6000421CD0B22028F6DB00BF704770B50446A8
:100A700024B1E043401C2040A04201D0002070BDC2
:100A8000FFF742FB0646C2480068044206D0C04851
:100A900000686040BE490860012500E0002530463E
:100AA000FFF736FB2846EAE770B5FFF72DFB054652
:100AB000B74804680020B64908602846FFF728FBBD
:100AC000204670BD10B54FF4C071B24808F0A0FACE
:100AD0000020B1490860AE490860B049087010BDF7
:100AE00070B5044624B1E043401C2040A04201D030
:100AF000002070BDFFF708FB0546A54800682043AD
:100B0000A34908602846FFF703FB0120F1E770B511
:100B1000044624B1E043401C2040A04201D0002004
:100B200070BDFFF7F1FA054699480068A04398495F
:100B300008602846FFF7ECFA0120F1E72DE9F041C3
:100B400005460E4626B92846FFF7CAFFBDE8F081E4
:100B500045B1E843401C2840A84203D16FF0004053
:100B6000864201D30020F1E72846FFF771FF0446D3
:100B7000202C01DB0020E9E7FFF7C6FA074604EB6B
:100B80004400844901EB8000406820B98348007824
:100B9000401C82490870002004EB44017D4A42F861
:100BA000210004EB4400114601EB8000466038460A
:100BB000FFF7AEFA0120C9E72DE9F04105460E46E0
:100BC0004DB1E843401C2840A84204D11EB16FF04B
:100BD0000040864202D30020BDE8F0812846FFF79E
:100BE00037FF0446202C01DB0020F5E7FFF78CFAE5
:100BF000074604EB4400674901EB8000406880B978
:100C000066480078401C65490870002004EB4401E8
:100C1000604A42F8210004EB4400114601EB8000D9
:100C2000466004EB44005B4901EB800086605A4853
:100C300000682843584908603846FFF769FA0120E0
:100C4000CAE770B5044624B1E043401C2040A042EE
:100C500001D0002070BD2046FFF7FAFE0546202D8A
:100C600001DB0020F6E7FFF74FFA064605EB4500EB
:100C7000484901EB8000406820B148480078401E98
:100C800046490870002005EB4501424A42F8210020
:100C900005EB450102EB810148603F480068A04335
:100CA0003D4908603A480068A04339490860304629
:100CB000FFF72EFA0120CDE72DE9F0414FF0FF308C
:100CC000374908603248006808B10020086002F027
:100CD00061FC0546002651E006EB46002D4901EB7C
:100CE0008004FFF711FA8046606818B94046FFF7A4
:100CF0000FFA41E0206810B960682844206020683D
:100D00002F1A6FF00040874222D200202449086049
:100D10000120B0401E49096808431D4908600120B0
:100D2000B0401D490968084203D0A06828442060EB
:100D30001EE000202060606018480078002803DD75
:100D400016480078401E00E00020144908700FE0AB
:100D50001348006860B12068401B11490968884247
:100D600002D90F48006801E02068401B0C49086068
:100D70004046FFF7CDF900BF701CC6B2202EABDB9A
:100D8000BDE8F08110B5FFF797FF0548006810BD7A
:100D90007C0000201806002078000020840000203D
:100DA0008000002010B500244FF48051F74804F073
:100DB000BDF9044614B102F03EFA01E002F042FA35
:100DC00010BD0020F249088870477047F14991F83A
:100DD000C4120143EF4A82F8C4127047ED4991F8FA
:100DE000C4128143EB4A82F8C41270470146E94AB3
:100DF00092F8C42202EA0100E64A92F8C4228A4329
:100E0000E44B83F8C42270472DE9F05F04460D4699
:100E1000E14AE24B2046294608F094FA8046002237
:100E2000DF4B08F08FFA82468B465046594608F051
:100E30003DFB06460F4630463946BDE8F09FDD23B0
:100E40003F22135440221354412280F83C2090F852
:100E50003C2009B1202300E000231A4380F83C2005
:100E600088233D22135490F8B2323E221354426834
:100E70000B2A05D1FF23412213544222135405E0CB
:100E800000F13C02C74B1B88A0F8413000F13C0246
:100E9000C54B1B88A0F8433070472DE9F04104464C
:100EA0000D4617461E4684F8D07135B12A4604F522
:100EB000E87104F1450008F092F805F10B00A4F880
:100EC0001A0131462046FFF7BAFF012E02D1022057
:100ED00084F87A0284F87B62BDE8F0812DE9F04164
:100EE000064614461D4636B1200A40EA05673846D4
:100EF00007F0BDFC00BF304607F04EFDBDE8F081B5
:100F00002DE9F04104460D460026B4F81A010022EE
:100F100004F13C0106F0EDFEB4F81A01002106F0E0
:100F2000FBFE55B194F834010206D4F8301142EAC0
:100F30001127384607F09BFC00BF94F87A0218B1DD
:100F400041F2883007F04EFD94F87A122943C8B276
:100F500007F095FC00B101263046BDE8F0817CB574
:100F600002250126182001F021FD07F0E3FD05EB25
:100F700045008E4911F820008DF8000005EB450072
:100F800001EB8000001D711E50F8210001906846A1
:100F900006F00AFD284607F0FFFD002403E0E0B25A
:100FA00006F030FD641C1F2CF9DD7CBD30B5054614
:100FB0000B461446012C08D1FF2B05D10120FFF769
:100FC00005FF0620FFF70AFF30BD3CB9FF2B05D116
:100FD0000220FFF7FBFE0520FFF700FF00BFF3E74D
:100FE000024692F8C43202F5E8704354084670474E
:100FF00000206F4908808870C87070472DE9F04163
:10100000804698F87A0220BB00BF98F83800C8B133
:10101000D8F85812D8F8080140180446D8F80C003F
:101020000B280FD10022634BD8F870623046D8F8F5
:10103000741208F053FA05D20420D8F86012A1FB0C
:10104000000100194FF0000213461046FFF746FF5B
:1010500002E0002088F87A02002088F8380098F82A
:10106000000030B1D8F80C00052802D00120C8F8E3
:1010700010000820C8F80400BDE8F08170B5002514
:10108000444C07F059FC142060604B48417940F211
:10109000D110015500232B2202212046FFF7FDFE2F
:1010A0001420E06000212046FFF72AFF60B100BF56
:1010B00042A007F096FE00BF681CC5B2032D08DAF7
:1010C000032001F022FD04E006206060002007F00C
:1010D00089FC70BD10B52F4C07F02EFC36484179C5
:1010E00040F2D11001550023272201212046FFF7AD
:1010F000D4FE002084F854021220E0600021204633
:10110000FFF7FEFE40B100BF31A007F06AFE00BF4E
:101110002046FFF773FF05E00620606041F6583077
:1011200007F060FC10BD70B50446002500BF07F055
:1011300003FC1F48817840F2D11001550F206060F8
:101140000023242202212046FFF7A7FE002084F876
:1011500054020F20E060012001F0D7FC002120465E
:10116000FFF7CEFE60B100BF1FA007F03AFE00BF40
:10117000681CC5B2032D07DA032001F0C6FCD6E7D0
:101180000025002007F02EFC70BD0000000002408A
:1011900000FF010898070020FA48CE3B1835B13D02
:1011A00080842E41A600002024000020989C000886
:1011B000C800002000C06240601100207265747297
:1011C0006561742061636B206661696C21200A008F
:1011D000747865786369745F61636B5F73656E646F
:1011E000206661696C20000068656C702072657310
:1011F00070206661696C21200A00000070B5044609
:10120000002607F099FB0025F9480570002140F2FF
:10121000D1100155401C01552821401C0155C82101
:10122000401C015505212046FFF7DAFE06464FF621
:10123000FF70F049088000230722711C2046FFF749
:101240002CFE002084F854020B2060600021204610
:10125000FFF756FE48B100BFE7A007F0C2FD00BF90
:101260000B20E0600020206103E006206060012088
:10127000206170BD10B5E148FFF7C0FF10BD10B58B
:1012800004464FF6FF70A4F82A020020DC4988705B
:10129000FF200880DB480088A4F8A802B4F82A02DE
:1012A00006F0F1FDD748008806F0F5FD04F13C009A
:1012B000D4490988A4F84310002084F8380007F0C6
:1012C0007BF9012084F88D0294F88D0207F05DF916
:1012D000002007F087FB2046FFF790FE10BD70B599
:1012E00004460D46042D1FD100BFC7A007F079FDAD
:1012F00000BF94F87802A0B194F87802032810DBBC
:10130000002084F8380084F87A0207F06BFB20781C
:10131000032808D1E068052805D12046FFF76EFEB6
:1013200001E00820606070BDE068032809D102F088
:101330002EF906462078032802D10120C4F838028D
:101340000CE0E0680F2809D0E068022806D1207878
:10135000032803D102F01BF9064600BF2046FFF721
:101360004DFE00BFDFE72DE9F0478AB0824600BF9F
:101370000AF5DC7006F011FDBAF8C20108F056F863
:10138000CDE90601BAF8C40108F050F804460D464C
:1013900022462B462046294607F062FF06460F46A6
:1013A00000224FF08243DDE9060107F059FF324683
:1013B0003B46CDE9000107F0C5FFCDE9020108F089
:1013C000F1FB80460022924B07F04AFF914A924B74
:1013D000CDE9040107F03EFFCDE90801DDE9080190
:1013E00008F045F840B28AF8CC020AB0BDE8F087B0
:1013F0002DE9F04F97B0824600BF00BF00BF00BF8D
:101400004FF0000B0AF5DC7006F0C7FCBAF8BA0121
:1014100008F00CF804460D46BAF8BE0108F006F8CC
:1014200006460F46BAF8C00108F000F88046894623
:10143000BAF8C40107F0FAFFCDE91201DDE9122381
:101440001046194607F00CFF42464B46CDE90A010B
:101450004046494607F004FF32463B46CDE90601C7
:101460003046394607F0FCFE22462B46CDE9020104
:101470002046294607F0F4FECDE90001DDE902230C
:1014800007F047FECDE90401DDE9062307F041FE40
:10149000CDE90801DDE90A2307F054FFCDE90C018D
:1014A00008F080FB00225A4BCDE90E0107F0D8FE70
:1014B000584A594BCDE9100107F0CCFECDE9140193
:1014C000DDE9140107F0D3FF0FFA80FB584617B08F
:1014D000BDE8F08F2DE9F04104460D4616461F4643
:1014E000DDF818804D484E49097820F831404C49C4
:1014F000097800EBC100458048484949097800EB6C
:10150000C100467145484649097800EBC1000771A2
:1015100042484349097800EBC10080F80680404802
:101520000078401C3E49087008460078142807DB04
:101530004FF40020FFF7EBFA4FF40020FFF7D0FA4A
:10154000BDE8F08110B500200021364A117800BFB7
:1015500037E0324A324B1B7802EBC303314A0C327C
:1015600002EB800212881A8000232C4A2C4C24782B
:1015700002EBC40253802B4A0C3202EB80029378B8
:10158000264A274C247802EBC4025371254A0C32B8
:1015900002EB8002D378214A214C247802EBC4026A
:1015A0001371214A92F900301C4A1D4C247802EB39
:1015B000C40293711A4A1278521C194B1A70421CB9
:1015C000D0B28842C5DB10BD01200C4981F8CD02A4
:1015D00070472DE9F04F87B00446884660680828B8
:1015E0007ED1B8F1020F21D0B8F1040F79D17FE19B
:1015F000AD000020A6000020734E200098070020B8
:10160000C8000020240000202D574F542000000067
:1016100000002440AE47E17A14EE5C4078050020DB
:1016200010000020A0110020C700002004F19F0539
:1016300000200390B5F807000690B5F80500059066
:10164000687A0390A97B687B01EB0020C0B204900C
:10165000BDF81800A4F84801BDF81800F649088044
:101660002046FFF780FEFFF79DFB039828281AD03D
:1016700006DC202809D023284ED026287DD18FE0F3
:101680002B287FD02C28F9D1BEE094F9CC02009011
:10169000EB7AAA7A0021BDF81800FFF71BFF20465D
:1016A000FFF7ACFC17E1687B00026087618FA87BC5
:1016B0000844608704F52070BDF81810A4F8AA1239
:1016C00094F9CC0200902B7BEA7A618FBDF8180068
:1016D000FFF700FF07206060E87BFF2809D101E0E9
:1016E0002AE126E1287CFF2803D12046FFF786FC6B
:1016F00011E0B5F80F000290B5F811000190B4F8B0
:10170000AA02BDF80820BDF80410FEF77FFE2046AF
:10171000FFF774FC00BFDEE004F52070BDF8181080
:10172000A4F8AA12C5480088B4F8AA12884215D1B4
:10173000C248807810F0040F02D1FFF759FC1AE07C
:101740004FF48050FFF7CCF90120FFF73FFBA87A58
:10175000BA4988702046FFF751FC0CE04FF48050E6
:10176000FFF7BEF90120FFF731FBB4F8AA02B34935
:101770000880A87A8870204601E0A5E002E0FFF723
:10178000D2FCA8E04FF48050FFF7AAF90120AC4941
:101790000870B4F8AA02A9490880A87A88709AE06B
:1017A000BDF81800A4F8AA02A4480088BDF81810D3
:1017B000884217D1A148807810F0020F02D1FFF7BC
:1017C00017FC1EE04FF48050FFF78AF92020FFF746
:1017D000FDFABDF8180099490880A87A8870E87A5F
:1017E000C8700EE04FF48050FFF77AF92020FFF721
:1017F000EDFABDF8180091490880A87A8870E87A57
:10180000C870FFF767FC66E04FF00009002600276C
:10181000B246B34695F80A90B9F1000F50D0894806
:10182000077800BF44E088480078142819DAB0002F
:10183000801D05F10901084400880290B0000830BD
:1018400011F800A0B000093011F800B094F9CC02F2
:101850005B46524600210090BDF80800FFF73AFEB3
:1018600024E0142F20DC77480C3000EB8702B00016
:10187000801D05F10901084400881080B00008307F
:1018800011F800A0B000093011F800B06D480C301C
:1018900000EB870080F802A06A480C3000EB87005C
:1018A00080F803B0781CC7B2FFF78EFE701CC6B27A
:1018B0004E45B8DB6348077094F8CC026349087062
:1018C0002046FFF79BFB06E0002084F83800204606
:1018D000FFF794FB00BF00BF94F8540238B920789A
:1018E00028B9002084F838002046FFF787FB21E064
:1018F000E06A401CE062002020612078032802D0CA
:101900002078012812D12078032804D1E068022829
:1019100001D160600AE00020E06207F063F8002077
:1019200084F87B022046FFF769FB03E04FF00008D4
:1019300000E000BF00BF00E000BF00BF206907B0AB
:10194000BDE8F08F424A10707047414800787047F8
:101950003F48D0F8380228B100203D49C1F838028C
:10196000012070470020FCE7394890F8CD0228B1EB
:101970000020374981F8CD02012070470020FCE7A4
:10198000334A82F8CB02704710B500240020C4EB24
:10199000041101EB41012E4A02EB0111C862C4EBB4
:1019A000041101EB410102EB011181F82802002131
:1019B000C4EB041202EB4202254B03EB0212C2F805
:1019C0009811C2F89C11C4EB041101EB41011A46B5
:1019D00002EB0111C1F8A001012007F050F800202E
:1019E000C4EB041101EB4101194A02EB011181F82A
:1019F0002802C4EB041101EB410102EB0111C1F813
:101A0000A801C4EB041101EB410102EB0111C1F883
:101A1000A401C4EB041101EB410102EB01110863C5
:101A2000C4EB041101EB410102EB0111486310BD4D
:101A30000749C1F8AC027047A6000020C80000208A
:101A4000C6000020A011002010000020C7000020C8
:101A5000980700202DE9FE43054600240020019050
:101A600002900026002780460120FFF7E1FF28783A
:101A700002287DD16878C4EB041101EB4101FE4AD4
:101A800002EB011181F81E0100220121684606F0D7
:101A900052F96888052801D1052701E0022700BF17
:101AA00000BF022F65D1C4EB041000EB4000F249E7
:101AB00001EB001090F87F0202287DDA01A806F001
:101AC000ABF99DF804009DF8051000EB01209DF88E
:101AD000061000EB01409DF8071000EB01669DF831
:101AE00008000021C4EB041202EB4202E24B03EBBC
:101AF000021202F5887203C2C4EB041000EB40002E
:101B0000194601EB0010D0F810010021C4EB0412BB
:101B100002EB420203EB0212C2F81011C2F81401E8
:101B2000C4EB041000EB4000194601EB0010D0F8A4
:101B30001021D0F81401921940F10000C4EB0411F7
:101B400001EB410103EB0111C1F81021C1F81401AF
:101B5000C4EB041000EB4000194601EB0010D0F874
:101B60001011D0F81401C54AC2E90010688801E0DC
:101B700080E07EE0C4EB041101EB41011A4602EB68
:101B80000111A1F81C016988C4EB041202EB4202A6
:101B900003EB021202F19F00002206F0CCF8C4EB26
:101BA000041000EB4000B44901EB001090F8A800CD
:101BB0002A280BD1002000E043E0C4EB041101EB24
:101BC0004101AD4A02EB011181F87C020120C4EB16
:101BD000041101EB4101A84A02EB011181F87C02DA
:101BE0000221C4EB041000EB400002EB001090F85F
:101BF0007F22C4EB041000EB40009F4B03EB00106E
:101C000090F87F02401CC4EB041303EB4303DFF89E
:101C100068C20CEB031383F87F02C4EB041000EBE3
:101C20004000634603EB001000F27D208154082041
:101C3000C4EB041101EB41011A4602EB01114860AB
:101C400001E04FF001088E480068401C8C49086094
:101C5000C4EB041000EB4000874901EB0010406B1F
:101C6000401CC4EB041101EB4101834A02EB01115A
:101C700048635CE0287804284AD1C4EB041000EBE8
:101C800040007D4901EB001090F87F02022828DA1D
:101C90000421C4EB041000EB4000774A02EB001073
:101CA00090F87F22C4EB041000EB4000724B03EB72
:101CB000001090F87F02401CC4EB041303EB4303B5
:101CC000DFF8B4C10CEB031383F87F02C4EB0410FC
:101CD00000EB4000634603EB001000F27D208154CE
:101CE00001E04FF00808C4EB041000EB400062492B
:101CF00001EB00104068062819D1C4EB041101EB78
:101D000041015D4A02EB01100421FFF7E8FA0EE001
:101D1000C4EB041000EB4000574901EB001090F8B1
:101D20008D0220B9002213461046FFF7D7F8B8F10C
:101D3000000F06DD4FF00A0806F0FEFD002006F059
:101D40002BFEBDE8FE832DE9FC4107460024002060
:101D50000090019000253E780120FFF769FEC4EB5A
:101D6000041000EB4000444901EB001090F81E0104
:101D700050B106260020C4EB041101EB41013E4A9C
:101D800002EB011181F81E01012E74D1C4EB041085
:101D900000EB4000384901EB001090F87F02022868
:101DA00053DA684606F029F89DF800009DF8011006
:101DB00000EB01209DF8021000EB01409DF803109C
:101DC00000EB01659DF804000021C4EB041202EB56
:101DD0004202294B03EB021202F5847203C2C4EBE8
:101DE000041000EB4000194601EB0010D0F8080188
:101DF0000021C4EB041202EB420203EB0212C2F810
:101E00000811C2F80C01C4EB041000EB40001946A5
:101E100001EB0010D0F80821D0F80C01521940F164
:101E20000000C4EB041101EB410103EB0111C1F807
:101E30000821C1F80C010020C4EB041101EB4101A1
:101E40001A4602EB011181F87C02C4EB041000EB8E
:101E50004000094901EB0010006B401CC4EB041169
:101E600001EB4101044A02EB01110863C4EB0411C8
:101E700001EB410106E00BE098070020B8000020CC
:101E8000A800002002EB01100121FFF728FA34E03E
:101E9000062E32D1C4EB041000EB4000FE4901EBEA
:101EA000001090F87F02022827DA0621C4EB041004
:101EB00000EB4000F84A02EB001090F87F22C4EBE0
:101EC000041000EB4000F44B03EB001090F87F028D
:101ED000401CC4EB041303EB4303DFF8BCC30CEB5F
:101EE000031383F87F02C4EB041000EB4000634649
:101EF00003EB001000F27D208154BDE8FC8170B539
:101F000000240020C4EB041101EB4101E24A02EB82
:101F1000011181F83800C4EB041101EB410102EB1F
:101F200001114860C4EB041101EB410102EB011106
:101F300081F85502C4EB041101EB410102EB0111E0
:101F400081F85402C4EB041101EB410102EB0111D1
:101F5000C1F8A401C4EB041101EB410102EB011132
:101F6000C1F8A80106F0E6FD40F6070005F07DFC8B
:101F700005460121C94806F070FD022006F0EBFB82
:101F80000DB1601E70BDAFF23351AFF2452006F0C7
:101F900025FBFFF7F9FC4DF6CA60C4EB041101EB19
:101FA0004101BD4A02EB0111A1F82A020120C4EB54
:101FB000041101EB410102EB011181F856020020EE
:101FC000C4EB041101EB410102EB011181F857024E
:101FD000B349FEF719FFB34B1840C9B2C4EB041262
:101FE00002EB4202AC4B03EB021202F51A7203C27F
:101FF0000020AD49FEF708FFAA4B1840C9B2C4EB58
:10200000041202EB4202A44B03EB021202F5187217
:1020100003C20021A548C4EB041202EB420203EB09
:102020000212C2F87012C2F874020020A049FEF732
:10203000EBFEC4EB041202EB4202974B03EB0212DD
:1020400002F5167203C29B48C4EB041101EB410177
:102050001A4602EB0111C1F844020020C4EB04113E
:1020600001EB410102EB011181F87802C4EB04118C
:1020700001EB410102EB011181F87A02C4EB04117A
:1020800001EB410102EB011181F87B02C4EB041169
:1020900001EB410102EB011181F87C02C4EB041158
:1020A00001EB410102EB011181F8800201F06FFAAE
:1020B000C4EB041101EB4101774A02EB0111C1F8B5
:1020C00088020020C4EB041101EB410102EB011175
:1020D00081F87D020021C4EB041000EB400002EB0C
:1020E000001080F87E120020C4EB041101EB4101C6
:1020F00002EB011181F87F0242F21070C4EB04116F
:1021000001EB410102EB0111C1F848020020C4EBD0
:10211000041101EB410102EB011181F88D02C4EBC6
:10212000041101EB410102EB01114887C4EB0411DA
:1021300001EB410102EB011181F8B002C4EB041183
:1021400001EB410102EB011181F8B702C4EB04116C
:1021500001EB410102EB0111A1F8BC02C4EB041137
:1021600001EB410102EB011181F8B802C4EB04114B
:1021700001EB410102EB011181F8CA02C4EB041129
:1021800001EB410102EB011101F2922005F094FEF6
:10219000FEF717FE48490880C4EB041101EB41012A
:1021A0003D4A02EB0110FFF76AF80020EAE610B59D
:1021B00005F055FB10BD2DE9F0410546002403272D
:1021C00000BF0320C4EB041101EB4101324A02EBD2
:1021D000011108756978C4EB041000EB400002EBB4
:1021E000001041766978C4EB041000EB400002EB6C
:1021F00000100176A978C4EB041000EB400002EB5C
:1022000000104175E978C4EB041000EB400002EBCC
:102210000010C1762979C4EB041000EB400002EBFA
:10222000001081756979C4EB041000EB400002EBEB
:102230000010C175A979C4EB041000EB400002EB5B
:10224000001081760021C4EB041000EB400002EB8B
:102250000010017741F24101C4EB041000EB400093
:1022600002EB0010C1830021C4EB041000EB40001E
:1022700002EB001080F820103946C4EB041202EB88
:102280004202054B03EB021202F1140005F0EEFBD3
:10229000287800EB400011E09807002080D0020071
:1022A00000409F4000FEFFFF0088B3400000144044
:1022B0000070A74040420F0024000020F64911F8AA
:1022C0002000C4EB041101EB4101F44A02EB0111BF
:1022D00081F82400C4EB041202EB4202EF4B03EB43
:1022E0000212117DA87805F06DFB06460EB1701C38
:1022F0000AD1287800EB4000E74901EB8000001D7F
:10230000A978491E50F82160C4EB041000EB40008E
:10231000E24901EB001090F82000012807D1C4EB3E
:10232000041000EB400001EB001086620FE0F0B2F9
:1023300040EA002141EA004141EA0062C4EB041195
:1023400001EB4101D54B03EB01118A6200BFD44977
:10235000C4EB041000EB4000D04A02EB0010816295
:10236000C4EB041101EB410102EB011191F82000D3
:1023700006F0B7F8C4EB041101EB4101C74A02EBC8
:10238000011101F1240005F00FFB17F0020F23D11A
:10239000A878401EC34931F81000C4EB041101EBCA
:1023A0004101BE4A02EB0111A1F82001C4EB041166
:1023B00001EB410102EB0111B1F8200105F017FB1F
:1023C000C4EB041101EB4101B44A02EB0111B1F875
:1023D000200105F002FB38E0A87805F082FC4010EF
:1023E000C4EB041101EB4101AC4A02EB0111A1F86D
:1023F0002001C4EB041000EB4000114601EB00107B
:10240000B0F8200108BBA878401EA64931F810009A
:10241000C4EB041101EB410102EB0111A1F8200111
:10242000C4EB041101EB410102EB0111B1F82001F1
:1024300005F0DDFAC4EB041101EB4101974A02EB10
:102440000111B1F8200105F0C8FAC4EB041000EB4B
:102450004000924901EB0010B0F820019249088039
:10246000BDE8F0812DE9F04105460024032700BFB7
:10247000C4EB041000EB4000884901EB0010057527
:102480003946C4EB041202EB4202844B03EB021206
:1024900002F1140005F0EAFA05EB45007E4911F857
:1024A0002000C4EB041101EB41017C4A02EB011155
:1024B00081F82400C4EB041000EB400002EB001094
:1024C000017D012005F07EFA06460EB1701C05D193
:1024D00005EB4500704901EB80004668C4EB041031
:1024E00000EB40006D4901EB001090F8200001283E
:1024F00007D1C4EB041000EB400001EB0010866232
:102500000FE0F0B240EA002141EA004141EA0062F6
:10251000C4EB041101EB4101604B03EB01118A6232
:1025200000BFC4EB041101EB41015C4A02EB011155
:1025300091F8200005F0D5FFBDE8F08110B500212D
:102540004FF47A724243C1EB011303EB4303534C44
:1025500004EB0313C3F8402210BD10B50022C2EBF8
:10256000021303EB43034D4C04EB031303F51C73FD
:1025700003C310BD2DE9F04704460D464FF0000A95
:1025800052464A4B2046294606F06AFE0646FEF7AA
:102590003BFCCAEB0A1202EB4202404B03EB021275
:1025A00002F5187203C2CAEB0A1000EB400019468C
:1025B00001EB001000F51C7030C000224FF080438A
:1025C0002046294606F046FE06460022374B06F016
:1025D00047FE8046FEF718FCCAEB0A1202EB4202E5
:1025E0002E4B03EB021202F5167203C2BDE8F08710
:1025F00010B50021C1EB011303EB4303274C04EB9F
:10260000031383F8560210BD10B51021284802F0BC
:10261000A7FD012000F079FA1021254802F09EFD67
:10262000052000F072FA002005F005FF0021481E89
:1026300006F013FA10BD70B5184800F5287060C890
:10264000102200232846314606F098FC1446204606
:1026500070BD1249D1F8AC027047164801880020BD
:10266000144A10800846704730B51348D0E900205E
:10267000C3B20021104C216061601046194630BD84
:1026800030B50E48D0E90020C3B200210B4C2160C8
:1026900061601046194630BD989C000898070020DC
:1026A000751F1F75F89C0008A400002000408F4093
:1026B00000000240C0000020B8000020B000002050
:1026C0003F49088800213E4A118070473D4991F8F2
:1026D000CB0270473C49087870470020704770B5BE
:1026E00005460024C4EB041000EB4000354901EB23
:1026F000001090F87D6255B9C4EB041101EB410163
:10270000304A02EB01103146FEF763FF08E0C4EBEC
:10271000041101EB41012B4A02EB0110FEF76EFCA4
:10272000EEB30020C4EB041101EB4101254A02EB9A
:10273000011181F87D02C4EB041000EB400011464A
:1027400001EB001090F87F02401EC4EB041101EB76
:10275000410102EB011181F87F02C4EB041000EB90
:102760004000114601EB001090F87E02B8B1C4EBB6
:10277000041000EB400001EB001090F87E02C4EB67
:10278000041101EB410102EB011181F87D020021EE
:10279000C4EB041000EB400002EB001000E001E08D
:1027A00080F87E120021C4EB041000EB4000054AC3
:1027B00002EB001080F87E1200BF002070BD000008
:1027C000C400002098070020CC00002000207047A3
:1027D00010B500BF0221614804F0CAF80028F9D002
:1027E00000215E4804F040F8002010BD2DE9F041C2
:1027F00005460E461746984600241021584802F018
:10280000AFFC00BF0EE0315D544804F07AF800BF21
:102810000121524804F0ACF80028F9D04F4804F0E8
:102820006DF8641CAC42EEDB00240FE018F80410D5
:102830004A4804F066F800BF0121484804F098F8BF
:102840000028F9D0454804F059F8641CBC42EDD387
:102850001021434802F082FC0020BDE8F0812DE900
:10286000F04105460E4617469846002410213C4884
:1028700002F076FC00BF0EE0315D384804F041F80C
:1028800000BF0121354804F073F80028F9D033481F
:1028900004F034F8641CAC42EEDB002410E00021AC
:1028A0002E4804F02EF800BF01212C4804F060F8F7
:1028B0000028F9D0294804F021F808F80400641C25
:1028C000BC42ECD31021264802F048FC0020BDE8B1
:1028D000F0812DE9F04104460F4615460026B0462A
:1028E0002FB14FF400611F4802F038FC0BE0012CBF
:1028F00004D1287810F0030F00D0A0464FF40061F7
:10290000184802F02DFC4FF48051164802F028FCC4
:1029100000260EE0A95D144803F0F3FF00BF01217B
:10292000114804F025F80028F9D00F4803F0E6FF1D
:10293000761CA642EED34FF400610A4802F010FC68
:102940004FF48051074802F009FCB8F1000F02D0A3
:10295000022000F050FEBDE8F08100000030014090
:102960000000024000040240003800401CB54FF453
:102970008070009001208DF8040003208DF8050080
:102980006946454802F070FB4FF48071424802F0FE
:10299000E7FB4FF48070009003208DF804008DF861
:1029A000050069463C4802F05FFB1CBD10B586B0CF
:1029B00004463A4803F094FE0020ADF804004FF4BA
:1029C0008270ADF806000020ADF80800ADF80A00EE
:1029D000ADF80C004FF40070ADF80E00ADF81040EB
:1029E0000020ADF812000720ADF8140001A92B4813
:1029F00003F09CFE0121294803F036FF06B010BD0C
:102A00000EB50121080702F019FF012002F0DFFCDA
:102A1000012002F0EDFE002002F0EAFE012002F0AB
:102A2000F6FD00BF492002F09FFD0028FAD04FF4C8
:102A3000803002F0B9FE012002F0D6FE02F0B0FFB5
:102A40004FF4801001F0FEFD4FF480100190002043
:102A50008DF8080008208DF8090001208DF80A0083
:102A600001A801F07EFD03208DF8000000208DF804
:102A700001008DF8020001208DF80300684601F086
:102A80005AFA002003F02CFB002003F03EFB01214A
:102A9000880303F099FD0EBD0000024000300140A4
:102AA00070B500F074FD05464FF0E02040694FF02E
:102AB000E020806900204FF0E0214969B0FBF1F48B
:102AC000204670BD70B50446FFF7EAFF054616487C
:102AD00004FB00F600BFFFF7E3FF401BB042FAD350
:102AE000002070BD70B500F052FD04464FF0E020AC
:102AF00040694FF0E0218969401A4FF0E0214969AF
:102B0000B0FBF1F00519284670BD70B50446FFF71B
:102B1000E9FF0546264600BFFFF7E4FF401BB04231
:102B2000FAD3002070BD000040420F0010B50246ED
:102B3000002000210AE042FA01F303F00103C1F191
:102B40000704A3400343D8B200BF491C0829F2DBA5
:102B500010BD10B5044600BF0221594803F008FF1C
:102B60000028F9D02146564803F0CBFE00BF0121D2
:102B7000534803F0FDFE0028F9D0514803F0BEFE93
:102B8000C0B210BD70B505460C464FF480514D489B
:102B900002F0E6FA4FF480514A4802F0DFFA284684
:102BA000FFF7D7FF2046FFF7D4FF4FF48051454889
:102BB00002F0D6FA70BD10B5CA210020FFF7E2FF7F
:102BC0002B210120FFF7DEFF00210220FFF7DAFFB3
:102BD00020210320FFF7D6FF10210420FFF7D2FFAA
:102BE00096210520FFF7CEFF96210620FFF7CAFFAA
:102BF0002B210720FFF7C6FF00210820FFF7C2FFA7
:102C000000210920FFF7BEFF00211020FFF7BAFFC7
:102C100000211120FFF7B6FF00211220FFF7B2FFBD
:102C200000211320FFF7AEFF10BD1FB500208DF867
:102C30000C008DF80F004FF40070029002A922489A
:102C400002F012FA0921002003F0F9FE00208DF8AD
:102C5000040008208DF8050001208DF806004002D0
:102C60000090684601F07DFC1FBD1CB54FF48060EC
:102C7000009000208DF804008DF807006946124886
:102C800002F0F2F94FF48050009001208DF804001A
:102C900000208DF8060003208DF8050000208DF837
:102CA00007006946074802F0DFF91CBD10B5FFF7C1
:102CB000BCFFFFF7DAFFFFF77EFF00F0BAFD10BDA3
:102CC00000380040000402400000024006488047EF
:102CD00006480047FEE7FEE7FEE7FEE7FEE7FEE701
:102CE000FEE7FEE7FEE7FEE791730008F500000847
:102CF00000B589B00121480202F08FFD0220019049
:102D000003208DF8080000208DF80B0001208DF8BD
:102D1000090001A94F4802F0A7F9102001900120F5
:102D20008DF8080000208DF80A008DF80B000120B6
:102D30008DF8090001A9484802F096F903A801F0AE
:102D40009AF9002003908DF8100001208DF81100F1
:102D500000200590079001208DF8200003A93F482E
:102D600001F064F90023012211463C4801F0E7F923
:102D700010213A4801F0B9F901224FF440313748A7
:102D800001F0AAF90021354801F090F909B000BD21
:102D900010B51021304802F0E1F9012002F034FCB6
:102DA00000BF212002F0E0FB0028FAD001212B48CF
:102DB00001F07CF900BF4021284801F09FFB00286A
:102DC000F9D0264801F067FA00BF0221234801F03C
:102DD00095FB0028F9D010BD10B500211F4801F067
:102DE00065F9002002F010FC10BD10B5FFF7D0FF10
:102DF0001A4801F08CFA0446FFF7EEFF204610BD9A
:102E00002DE9F04705460026284606F00AFB8146D4
:102E1000134906F008F98046124906F03AF90746C8
:102E200006F011FB85B200240CE040F28D400F212A
:102E300001FB1400A84203DCC4F15400C6B203E055
:102E4000601CC4B2142CF0DB00BF06B94226304629
:102E5000BDE8F08700000240000402400024014069
:102E600000401C4500F07F451CB50220009000206A
:102E70008DF8040001208DF8050002208DF8070070
:102E80006946484802F0F0F80121084603F0D7FDF2
:102E900000F039FD1CBD1CB5022001F0D3FB02205F
:102EA000009000208DF8040008208DF80500012016
:102EB0008DF80600684601F054FB1CBD1CB50220CD
:102EC000009000208DF8040008208DF805000020F7
:102ED0008DF80600684601F044FB1CBD1FB50120BB
:102EE000029000208DF80C008DF80F0002A92D48EB
:102EF00002F0BAF80021012003F0A1FD01200090AA
:102F000000208DF8040008208DF8050001208DF8C0
:102F10000600684601F025FB1FBD08B50F208DF89F
:102F200001008DF8020001208DF8030028208DF8A3
:102F30000000684600F0FFFF17208DF8000068468B
:102F400000F0F9FF09208DF80000684600F0F3FF5B
:102F500001208DF801008DF802008DF80300072094
:102F60008DF80000684600F0E6FF08BD10B500F0DF
:102F7000A0FA00F0A8FA00F0D1F800F059F800F03B
:102F80006BFB00F011F8FFF7B3FEFFF76DFF00F0E9
:102F9000EDFBFFF78BFEFFF7C0FFFFF79FFF00F091
:102FA00085FB10BD000402401FB500208DF80C0009
:102FB0008DF80F000820029002A91C4802F054F876
:102FC0004020029002A9194802F04EF80321012086
:102FD00003F035FD0621012003F031FD00208DF8BE
:102FE000040008208DF8050001208DF80600082057
:102FF0000090684601F0B5FA40200090684601F064
:10300000B0FA1FBD10B500244021084802F08EF828
:1030100010B144F0020406E00821044802F086F8EA
:1030200008B144F00104204610BD00000004024035
:1030300000B587B007220221364802F09EF8072229
:103040000321344802F099F826208DF81800012059
:103050008DF8190000208DF81A0001208DF81B0052
:1030600006A800F068FF0820049003208DF81500E2
:1030700000208DF814008DF8170004A9254801F0F0
:10308000F3FF0420049003208DF8150002208DF832
:10309000140000208DF8160004A91E4801F0E4FF7A
:1030A0004FF4E13000900020ADF80600ADF80800C4
:1030B000ADF80400ADF80C000C20ADF80A0069462C
:1030C000154803F042FE0121134803F0C3FE4021DE
:1030D000114803F0A7FF07B000BD70B504460D46C8
:1030E000E1B20D4803F0E1FE00BF40210A4803F0C1
:1030F0008CFF0028F9D00A2C0AD10D21064803F0D4
:10310000D4FE00BF4021044803F07FFF0028F9D01F
:10311000204670BD00000240004400401CB5012163
:10312000072002F069FB1020009001208DF80400B8
:1031300003208DF805006946554801F095FF1021E0
:10314000534802F00DF81021514802F007F84FF4EF
:103150008050009001208DF8040003208DF80500B8
:1031600069464B4801F080FF4FF48051484801F018
:10317000F7FF4FF40040009001208DF80400032079
:103180008DF805006946424801F06EFF4FF400419A
:103190003F4801F0E5FF4FF48060009001208DF87A
:1031A000040003208DF8050069463A4801F05CFFF1
:1031B0004FF48061374801F0D3FF4FF48061354808
:1031C00001F0CCFF4FF40050009001208DF8040076
:1031D00003208DF8050069462F4801F045FF4FF4A4
:1031E00000512D4801F0BAFF4FF40070009001200B
:1031F0008DF8040003208DF805006946254801F08C
:1032000033FF4FF40071234801F0AAFF1CBD1CB529
:103210004FF48050009001208DF8040003208DF8B9
:10322000050069461A4801F01FFF4FF48051184805
:1032300001F094FF1CBD10B54FF48051144801F00B
:103240008FFF10BD10B54FF48051114801F086FF7B
:1032500010BD10B54FF400410D4801F081FF14205E
:1032600000F0C9F94FF40041094801F077FF10BDA3
:1032700010B54FF48051064801F072FF142000F0A1
:10328000BAF94FF48051024801F068FF10BD000008
:1032900000000240000402400008024010B5012076
:1032A00001F0C5F920B1FCF73BFF012001F0CAF99C
:1032B00010BD10B5022001F0BAF940B10120DE497D
:1032C0000870C003FDF70CFC022001F0BBF910BD33
:1032D00010B5082001F0ABF940B10120D6490870C3
:1032E0001020FDF7FDFB082001F0ACF910BD10B572
:1032F000402001F09CF940B10120CF490870102016
:10330000FDF7EEFB402001F09DF94FF4007001F055
:103310008EF930B12020FDF7E3FB4FF4007001F08F
:1033200091F910BD10B500214FF0006000F039FE9A
:103330004FF4E06000F0FAFD10BD10B50121084621
:1033400002F05AFA0121022002F056FA012104206B
:1033500002F052FA0121480402F070FA01218803B8
:1033600002F05BFA0121080302F057FA01218803F9
:1033700002F064FA0121084602F04FFA10BD2DE96F
:10338000F047054600260027B0460024A14601F07C
:1033900085FB01F0B7FD044635B914F0010F0AD0E2
:1033A00000BF4FF0010906E0012D04D114F0010F18
:1033B00001D11026A946B9F1000F17D014F0020F61
:1033C00001D0002700E0202714F0040F02D04FF0B6
:1033D000000801E04FF0400800BF42463946304641
:1033E00001F018FD0428F8D101F06EFB01F065FB37
:1033F000BDE8F087704710B501F06DF901F04EFBA4
:1034000001F091FD38B100BFAA2001F039FC042879
:10341000FAD101F059FB10BD10B5012002F0FEF801
:1034200000BF412002F0A0F80028FAD00120FFF7E9
:10343000A6FF45F2555001F0D3FE062001F0D3FE61
:1034400040F6FF7001F0D2FE01F0D3FE01F0D6FE8F
:1034500010BD7FB5684602F02BF94FF47A710198E0
:10346000B0FBF1F42146B1F1807F00D31DE021F0E3
:103470007F40401E4FF0E022506150170F2200287D
:1034800007DA13071E0E6D4B00F00F052D1F5E555A
:1034900003E013071D0E6A4B1D5400BF00204FF0C0
:1034A000E02290610720106100BF042000F091FD30
:1034B0007FBD10B5FFF736FFFFF7CBFFFFF7ACFF7F
:1034C00000F082FC10BD10B5FFF737FF00F0D3FA13
:1034D00010BD1CB500215B4803F0C6F900214FF474
:1034E000805002F09AF90021574803F0B3FC002104
:1034F0004FF4003002F0A2F901208DF804000320FF
:103500008DF8050000208DF8060002208DF80700D8
:1035100001034E4801F024FE4FF400714C4801F0C5
:103520001DFE10214A4801F01BFE1CBD10B50121F3
:10353000080302F072F90121424803F095F90121D4
:10354000480402F07BF901213F4803F083FC4FF46B
:1035500000513E4801F002FE4FF400713C4801F07A
:10356000FFFD10213A4801F0F9FD10BD10B501F042
:1035700040FE10BD37480068401C3649086070475F
:10358000002034490860704732490860704731486C
:10359000006870472F48006870472E490968014449
:1035A0002C4A116070472B4A11684FF0E022526993
:1035B0004FF0E0239B69D21A4FF0E0235B69B2FB26
:1035C000F3F250187047234A11684FF0E022526915
:1035D0004FF0E0239B69D21A4FF47A735A434FF0AD
:1035E000E0235B69B2FBF3F201EB4103C3EBC113D0
:1035F00002EBC30070472DE9F04104462746FFF770
:10360000D2FF064606E0FFF7CEFF851BBD4201D381
:10361000BDE8F081F7E72DE9F04104462746FFF7C2
:10362000D2FF064606E0FFF7CEFF851BBD4201D361
:10363000BDE8F081F7E700000600002018ED00E08B
:1036400000E400E000300140004400400008024077
:1036500000040240D00000201CB54FF40060009030
:1036600001208DF8040000208DF8060002208DF85E
:10367000070001208DF8050069460B4801F0F4FCB5
:103680004FF40061084801F069FD1CBD10B54FF40E
:103690000061054801F064FD10BD10B54FF40061F4
:1036A000014801F05BFD10BD0000024000B587B08D
:1036B00005221146644801F060FD0522062162489A
:1036C00001F05BFD052207215F4801F056FD022055
:1036D0008DF8040000208DF8060002208DF8070008
:1036E00003208DF80500202000906946564801F01F
:1036F000BBFC402000906946534801F0B5FC802097
:1037000000906946504801F0AFFC504802F0E8FFD5
:103710000020ADF808004FF48270ADF80A000020D8
:10372000ADF80C00ADF80E00ADF810004FF40070CD
:10373000ADF81200464800684649884203D918206F
:10374000ADF8140002E01820ADF814000020ADF828
:1037500016000720ADF8180002A93C4802F0E6FF69
:1037600001213A4803F080F807B000BD00B587B0EA
:1037700005220D21384801F000FD05220F213648B1
:1037800001F0FBFC05220E21334801F0F6FC02207B
:103790008DF8040000208DF8060002208DF8070047
:1037A00003208DF805004FF40050009069462A4828
:1037B00001F05AFC4FF4004000906946264801F0A1
:1037C00053FC4FF4804000906946234801F04CFCC4
:1037D000224802F085FF0020ADF808004FF4827007
:1037E000ADF80A000020ADF80C00ADF80E00ADF801
:1037F00010004FF40070ADF812001548006815492C
:10380000884203D90820ADF8140002E00020ADF88A
:1038100014000020ADF816000720ADF8180002A92A
:103820000E4802F083FF01210C4803F01DF807B099
:1038300000BD10B50021094803F016F800214FF42F
:10384000804001F0FBFF10BD00000240003001404D
:10385000F000002000366E010004024000380040F5
:1038600070B504460D467C48007808B1FF2070BD55
:103870002A462146382000F06DFA0020F7E710B5FF
:1038800004467548007808B1FF2010BD2146382055
:1038900000F072FAC0B2F8E710B52A20FFF7EFFF88
:1038A00040F0010421462A20FFF7DAFF10BD10B5D1
:1038B0002A20FFF7E4FF044624F0010421462A20D1
:1038C000FFF7CEFF10BD70B50024002500BF0D210D
:1038D000382000F051FAC4B21A2C08D02A2C06D095
:1038E0003A2C04D02846691CCDB20528EFDB1A2CEF
:1038F00005D02A2C03D03A2C01D0012000E0002072
:103900005549087070BD10B5FFF7DDFF52480078CB
:1039100000B110BDFFF7CBFF6A222A21382000F04A
:1039200019FA1F222B21382000F014FA5A222C21D8
:10393000382000F00FFA2C222D21382000F00AFA4E
:103940002C222E21382000F005FAB822152138202B
:1039500000F000FA08221721382000F0FBF90322BA
:103960001821382000F0F6F91F221D21382000F020
:10397000F1F911221F21382000F0ECF900220E216C
:10398000382000F0E7F910220F21382000F0E2F98A
:103990001120FFF774FF044644F040042246112131
:1039A000382000F0D7F91320FFF769FF044604F030
:1039B0003F0400BF44F0400444F080042246132139
:1039C000382000F0C7F91C20FFF759FF044604F027
:1039D000F80400BF44F0010422461321382000F00F
:1039E000B9F91420FFF74BFF044604F0070444F034
:1039F000380422461421382000F0ACF91420FFF7D7
:103A00003EFF044604F0F80444F001042246142169
:103A1000382000F09FF92D20FFF731FF044644F0D5
:103A2000100422462D21382000F094F92E20FFF7B3
:103A300026FF044604F0EF0444F0100422462E2131
:103A4000382000F087F905221221382000F082F991
:103A5000FFF722FF00BF5CE7D400002008B500900C
:103A600004E09DF80010491EC9B200919DF80010B5
:103A70000029F6D108BD1CB54FF4806000900120EC
:103A80008DF8040003208DF8050000208DF8060055
:103A900001208DF807006946C54801F0E5FA4FF4AA
:103AA0000060009001208DF8040003208DF80500CF
:103AB00000208DF8060001208DF807006946BC48FB
:103AC00001F0D2FA4FF40061B94801F047FB4FF41E
:103AD0008061B74801F042FB1CBD1CB54FF400618A
:103AE000B34801F03BFB00BF4FF4006000900120A1
:103AF0008DF8040003208DF8050000208DF80600E5
:103B000001208DF807006946A94801F0ADFA00BF11
:103B10004FF48061A64801F021FB0120FFF79EFFD2
:103B20004FF40061A24801F01BFB4FF48061A048F4
:103B300001F016FB0120FFF791FF1CBD1CB54FF4EF
:103B400000619B4801F00CFB00BF4FF40060009047
:103B500001208DF8040003208DF8050000208DF869
:103B6000060001208DF807006946914801F07CFAB3
:103B700000BF4FF480618E4801F0F0FA0120FFF79A
:103B80006DFF4FF400618A4801F0E8FA0120FFF769
:103B900065FF1CBD1CB504462CB94FF40061844878
:103BA00001F0DEFA04E04FF40061814801F0D6FA3A
:103BB00000BF4FF40060009001208DF80400032046
:103BC0008DF8050000208DF8060001208DF8070013
:103BD0006946774801F048FA00BF4FF480617448A5
:103BE00001F0BCFA0120FFF739FF4FF48061704803
:103BF00001F0B6FA0120FFF731FF1CBD7CB5064687
:103C000000BF4FF40060009001208DF804000320F5
:103C10008DF8050000208DF8060001208DF80700C2
:103C20006946634801F020FA00BF002421E006FA4B
:103C300004F010F0800F05D04FF400615C4801F0F3
:103C40008DFA04E04FF40061594801F089FA4FF40D
:103C50008061574801F082FA0120FFF7FFFE4FF420
:103C60008061534801F07CFA0120FFF7F7FE601CE9
:103C7000C4B2082CDBDB4FF400614D4801F06EFA52
:103C800000BF4FF40060009000208DF80400032076
:103C90008DF8050001208DF8060000208DF8070042
:103CA0006946434801F0E0F900BF4FF480614048A5
:103CB00001F054FA0120FFF7D1FE4FF400613C48B7
:103CC00001F034FA012801D1002500E001254FF46C
:103CD0008061374801F044FA28467CBD7CB5002558
:103CE00000BF4FF40060009000208DF80400032016
:103CF0008DF8050001208DF8060000208DF80700E2
:103D000069462B4801F0B0F900BF002419E04FF4D8
:103D10008061274801F024FA0120FFF79FFE4FF44D
:103D20008061234801F01AFA0120FFF797FE680628
:103D3000050E4FF400611E4801F0F8F90543601CC0
:103D4000C4B2082CE3DB4FF48061194801F008FA93
:103D500028467CBD70B504460D461646FFF7BDFEED
:103D60002046FFF74BFF2846FFF748FF3046FFF796
:103D700045FFFFF7E3FE70BD70B504460D46FFF743
:103D8000ACFE2046FFF73AFF2846FFF737FFFFF764
:103D9000A4FE44F00100FFF731FFFFF79FFF064646
:103DA0000020FFF7F7FEFFF7C9FE304670BD0000A8
:103DB0000004024010B54FF4801000F043FC4FF4B3
:103DC000804002F078FC10BD10B50121080701F019
:103DD00035FD002001F068FAFEF712FE10BD70B547
:103DE0000546FFF7C3FBE80300094FF47A71B0FB07
:103DF000F1F4B4F5803F01D34FF6FF7404B970BD00
:103E00004FF4801000F01EFC4FF4804002F053FC91
:103E1000002002F08AF9204602F077F9012002F032
:103E200084F90121084601F02BFB002002F07DF906
:103E300000BF012001F091FB00BF00BF312001F065
:103E400093FB0028FAD0012001F0F3FB00BF3920DA
:103E500001F08AFB0028FAD0032001F0FAFB00BF32
:103E600001F001FC0C28FBD100BFFFF7F2FAFFF7CD
:103E70007DFB00BFC3E770B505462C460E2C00DC69
:103E800070BD0E3C04F0FFF9FCF755F9FFF721FB7C
:103E900044F62060844218DD06E044F62060FFF717
:103EA0009EFFA4F59C44203C44F62060844203DB42
:103EB0001B4800780028F0D00E2C09DD1848007847
:103EC00030B92046FFF78BFF02E02046FFF787FF5F
:103ED000FFF72CFB04F10E00FFF75FFB00BFCFE7FD
:103EE00010B504462046FFF77AFF10BDFCF70CF929
:103EF00000BFBFF34F8F0B48006800F4E0600A4931
:103F00000843001D07490860BFF34F8F00BF00BF83
:103F1000FEE710B504462046FFF7ADFF10BD0000D8
:103F2000060000200CED00E00000FA0533490143D3
:103F3000334A1160704770B5002100230F22C47806
:103F400024B32F4C246804F4E064C4F5E064C4F3A3
:103F50000721C1F10404E3B20A4144789C40E1B274
:103F60008478144021430C07210E264C05786155B6
:103F7000047804F01F050124AC4005786D114FF062
:103F8000E02606EB8505C5F8004109E0047804F059
:103F90001F040125A5401C4C0678761144F82650D4
:103FA00070BD1A4A0A400243154B1B1F1A60704726
:103FB00039B1134A121D12680243114B1B1D1A60BE
:103FC00006E00F4A121D126882430D4B1B1D1A603A
:103FD0007047042808D14FF0E021096941F004013D
:103FE0004FF0E022116107E04FF0E021096921F074
:103FF00004014FF0E0221161704700000000FA0553
:104000000CED00E000E400E080E100E080FFFF1F35
:1040100010B50446FE48844207D10121401501F045
:104020002FFC0021601501F02BFC10BD30B50246BD
:10403000002000235068F74C20400D790C6844EABA
:104040000524204350609068F34C2040D1E903548C
:104050002C438D682C434D7944EA450420439060FD
:10406000106B20F0F8700C7D641EE4B2234340EA2C
:104070000350106330BD0021016001714171816006
:104080004FF04071C160002101610121017570474D
:1040900001460020E14A106820F440300A681043CD
:1040A000DE4A1060704700210160704721B18268CC
:1040B00042F00102826003E0826822F00102826025
:1040C000704721B1826842F00402826003E0826896
:1040D00022F00402826070471AB143680B434360C8
:1040E00002E043688B43436070470A4600218168C1
:1040F00021F0F0011143816070470A4600214168B8
:10410000C74B19401143416070478162C2627047DA
:104110000A460021416821F01F01114341607047A8
:1041200030B1BE49096841F40001BC4A116005E0A4
:10413000BA49096821F40001B84A11607047F0B526
:1041400004460D46002000211D2D11DDE06DA5F176
:104150001E0606EB4607072606FA07F18843A5F177
:104160001E0606EB460603FA06F10843E06534E056
:10417000132D11DDE068A5F1140606EB46070726AE
:1041800006FA07F18843A5F1140606EB460603FA82
:1041900006F10843E06020E0092D11DD2069A5F15A
:1041A0000A0606EB4607072606FA07F18843A5F13B
:1041B0000A0606EB460603FA06F1084320610CE006
:1041C000606905EB4507072606FA07F1884305EB0A
:1041D000450603FA06F108436061072A0FDA206CEE
:1041E000561E06EB86071F2606FA07F18843561E61
:1041F00006EB860605FA06F1084320644AE00D2A1C
:104200000FDAE06BD61F06EB86071F2606FA07F1CA
:104210008843D61F06EB860605FA06F10843E063DD
:1042200038E0132A11DAA06BA2F10D0606EB86071F
:104230001F2606FA07F18843A2F10D0606EB860653
:1042400005FA06F10843A06324E0192A11DA606B2D
:10425000A2F1130606EB86071F2606FA07F188432C
:10426000A2F1130606EB860605FA06F10843606321
:1042700010E0206BA2F1190606EB86071F2606FA4E
:1042800007F18843A2F1190606EB860605FA06F146
:1042900008432063F0BD816841F080418160704730
:1042A000014600208A6812F0804F01D0012000E012
:1042B0000020704721B1826842F48062826003E08E
:1042C000826822F480628260704721B1826842F085
:1042D0000202826003E0826822F00202826070477C
:1042E00010B50A4600210023416821F46041531EA5
:1042F00041EA4331416010BD21B1426842F400629D
:10430000426003E0426822F4006242607047014666
:10431000886D80B2704721B1826842F480728260F9
:1043200003E0826822F480728260704721B1826863
:1043300042F40072826003E0826822F400728260BC
:104340007047F0B5044615460020002200261D29BE
:1043500011DDE06DA1F11E0707EB470C072707FAF7
:104360000CF29043A1F11E0707EB470703FA07F28F
:104370001043E06534E0132911DDE068A1F1140772
:1043800007EB470C072707FA0CF29043A1F114073B
:1043900007EB470703FA07F21043E06020E0092922
:1043A00011DD2069A1F10A0707EB470C072707FA7F
:1043B0000CF29043A1F10A0707EB470703FA07F253
:1043C000104320610CE0606901EB410C072707FAFC
:1043D0000CF2904301EB410703FA07F210436061CE
:1043E000606CC0F30156EF1C06F1010CA7EB0C0743
:1043F00007EB870C1F2707FA0CF29043EF1C06F11E
:10440000010CA7EB0C0707EB870701FA07F209E09D
:1044100000240140FFFEFFFCFDF7FFC00427014020
:10442000FFFD3FFF10436064F0BD10B50A46002158
:104430000023416C21F44011531E41EA03514164B1
:1044400010BD08B5002300930090009B0B4400931F
:10445000009B1A6008BD0A460021816821F4702182
:104460001143816070470A460021816821F44011A0
:10447000114381607047816841F480018160704719
:10448000014600208A6812F4800F01D0012000E06C
:104490000020704721B1426842F48062426003E02C
:1044A000426822F480624260704721B1426842F45F
:1044B0008052426003E0426822F4805242607047BA
:1044C00008B5024600200090009201F13000009BE8
:1044D000184400900098006880B208BD10B50B46E3
:1044E0000021D9B2012404FA01F11AB144680C4345
:1044F000446002E044688C43446010BD02460020E2
:1045000013680B4201D0012000E000207047CA432D
:104510000260704770B502460020002300240B0A99
:10452000556801268E4005EA060415681D4202D032
:104530000CB1012000E0002070BD00220A12D3431C
:1045400003607047002041490860091D0860091D8B
:104550000860091D08606FF07F403C491431086015
:104560007047002139498279002A3AD00A461268F8
:1045700003689A430B461A600A1D126803689A433F
:104580000B1D1A60027911440A6803681A430A6015
:104590002E4A0832126803689A432C4B08331A607B
:1045A0001A1D126803689A43284B0C331A6042792B
:1045B000102A0ED11A1F126803681A43234B0833BE
:1045C0001A601A1D126803681A43204B0C331A60D4
:1045D0000DE01E49427911440A6803681A430A60D3
:1045E00005E0027911440A6803689A430A6070473B
:1045F0000021016001710C2141710021817170471E
:104600001249103109680143104A10321160704795
:10461000014600200D4A143212680A4201D00120DE
:1046200000E00020704709491431086070470146D6
:104630000020064A143212680A4201D0012000E02C
:1046400000207047014914310860704700040140A0
:1046500001460020FE4A106820F001000843106067
:10466000704730B1FA49096841F00201F84A116017
:1046700005E0F749096821F00201F54A1160704729
:1046800030B1F349096841F00401F14A116005E0D5
:10469000EF49096821F00401ED4A1160704730B11B
:1046A000EB49096841F00801E94A116005E0E84971
:1046B000096821F00801E64A11607047E448001DCE
:1046C000006810F0010F05D0E248E1490C310860A4
:1046D000E1480860704700B5DD48001D006810F033
:1046E000020F07D0FFF7EAFFDC48D9491031086014
:1046F000DB48086000BDD648001D006840F002009D
:10470000D349091D086070470420D1491831096850
:1047100011F0010F01D0012010E0CD4918310968D6
:1047200011F4807F01D0022008E0C94918310968DE
:1047300011F4F05F01D0032000E00420704708B5B9
:10474000024604200090FFF7DFFF009003E0FFF730
:10475000DBFF0090521E9DF80000012801D1002AC5
:10476000F5D10AB9052000909DF8000008BD30B5CC
:10477000044604256803FFF7E2FF0546042D1FD118
:10478000B348001D006840F40070B149091D08607D
:104790000846006840F008000860002020606803B8
:1047A000FFF7CDFF0546AA48001D006820F008006D
:1047B000A749091D08600846006820F400700860D9
:1047C000284630BD70B504460D4604267003FFF739
:1047D000B6FF0646042E04D125604003FFF7AFFF65
:1047E0000646304670BD9A48001D006840F0010042
:1047F0009749091D0860704740B19549091D09682E
:1048000041F48071924A121D116007E09049091D20
:10481000096821F480718E4A121D1160704730B50D
:10482000044604256803FFF78AFF0546042D01D1DD
:1048300000202070284630BD30B5044604256803AA
:10484000FFF77DFF0546042D01D10020208028467A
:1048500030BD30B5044604256803FFF770FF0546F8
:10486000042D01D100202060284630BD70B50446DB
:104870000D4604267003FFF762FF0646042E0CD196
:104880007348001D006820F480707149091D08609C
:1048900025607003FFF753FF0646304670BD2DE9D3
:1048A000F04104460D46042600274FF0000870032F
:1048B000FFF745FF0646042E24D16548001D006819
:1048C00020F480706249091D08602DB125707003C5
:1048D000FFF735FF064615E024F00308D8F800700E
:1048E000A007C10EFF2000FA01F827EA080724F00C
:1048F0000300FFF7AEFF064624F003003946FFF73A
:10490000B5FF06463046BDE8F0812DE9F04104468A
:104910000D46042600274FF000087003FFF70FFF35
:104920000646042E32D14A48001D006820F48070EB
:104930004749091D08602DB125807003FFF7FFFE70
:10494000064623E004F00300032817D024F00308F0
:10495000D8F80070A007C10E4FF6FF7000FA01F8FA
:1049600027EA080724F00300FFF773FF064624F048
:1049700003003946FFF77AFF064607E0002120468C
:10498000FFF78DFF0021601CFFF789FF3046BDE86F
:10499000F0812DE9F04104460D46042600274FF032
:1049A00000087003FFF7CBFE0646042E1CD12DB184
:1049B00025704003FFF7C3FE064615E024F0030808
:1049C000D8F80070A007C10EFF2000FA01F827EA0E
:1049D000080724F00300FFF73CFF064624F003001D
:1049E0003946FFF743FF06463046BDE8F0812DE922
:1049F000F04104460D46042600274FF000087003DE
:104A0000FFF79DFE0646042E34D12DB125804003CC
:104A1000FFF795FE06462DE004F00300032821D0A1
:104A200024F00308D8F80070A007C10E4FF6FF70FD
:104A300000FA01F827EA080724F00300FFF709FF4E
:104A4000064624F003003946FFF710FF064611E042
:104A5000003C0240EFCDAB8905040302BFAE9D8C44
:104A60001615141300212046FFF719FF0021601CC2
:104A7000FFF715FF3046BDE8F08170B504460D46DE
:104A800004267003FFF75BFE0646042E04D1256062
:104A90004003FFF754FE0646304670BD00B5FE48A1
:104AA000006810F0040F07D0FFF708FEFB48FA4932
:104AB00010310860FA48086000BDF748006840F00F
:104AC0000400F54908607047F348006840F480200E
:104AD000F149086070472DE9F04704460F4600256C
:104AE00000264FF00408A946AA464FF40040FFF7FD
:104AF00026FE8046B8F1040F31D1AFB1E948806895
:104B0000204385B2E748C06840EA144086B2E843D3
:104B100045EA0049E348C0F80890F04346EA004AF5
:104B2000E048C0F80CA015E0DE48806880B220EABA
:104B30000405DC48C068E14300EA1146E84345EA61
:104B40000049D848C0F80890F04346EA004AD548E2
:104B5000C0F80CA04FF40040FFF7F1FD804640463E
:104B6000BDE8F0872DE9F04704460F4600250026F2
:104B70004FF00408A946AA464FF40040FFF7DFFDB6
:104B80008046B8F1040F31D1AFB1C6480069204367
:104B900085B2C448406940EA144086B2E84345EA19
:104BA0000049C048C0F81090F04346EA004ABD48AA
:104BB000C0F814A015E0BB48006980B220EA0405E3
:104BC000B8484069E14300EA1146E84345EA004934
:104BD000B448C0F81090F04346EA004AB148C0F823
:104BE00014A04FF40040FFF7AAFD80464046BDE800
:104BF000F0872DE9F04704460F46002500264FF0C8
:104C00000408A946AA464FF40040FFF798FD8046E5
:104C1000B8F1040F31D1AFB1A2488069204385B209
:104C2000A048C06940EA144086B2E84345EA00491A
:104C30009C48C0F81890F04346EA004A9948C0F8EA
:104C40001CA015E09748806980B220EA04059548C9
:104C5000C069E14300EA1146E84345EA004991484A
:104C6000C0F81890F04346EA004A8E48C0F81CA0ED
:104C70004FF40040FFF763FD80464046BDE8F087F3
:104C8000F0B504460425002600276803FFF757FD0A
:104C90000546E043C6B244EA0647042D01D18148E7
:104CA00007604FF40040FFF74AFD05462846F0BD77
:104CB0002DE9F04704460F46002500264FF0040872
:104CC000A946AA464FF40040FFF739FD8046B8F1E7
:104CD000040F31D1B7B17348806880B220EA04056F
:104CE0007048C068E14300EA1146E84345EA0049DC
:104CF0006C48C0F80890F04346EA004A6948C0F89A
:104D00000CA014E067488068204385B26548C068FD
:104D100040EA144086B2E84345EA00496148C0F8D9
:104D20000890F04346EA004A5E48C0F80CA04FF4F1
:104D30000040FFF704FD80464046BDE8F0872DE9BE
:104D4000F04704460F46002500264FF00408A94608
:104D5000AA464FF40040FFF7F2FC8046B8F1040F7A
:104D600031D1B7B14F48006980B220EA04054D48FF
:104D70004069E14300EA1146E84345EA00494948F1
:104D8000C0F81090F04346EA004A4648C0F814A024
:104D900014E044480069204385B24248406940EA33
:104DA000144086B2E84345EA00493E48C0F81090F6
:104DB000F04346EA004A3B48C0F814A04FF40040D4
:104DC000FFF7BDFC80464046BDE8F0872DE9F04383
:104DD0000446042500274FF000084FF00009002684
:104DE0006803FFF7ACFC05462E4890F8009044EAB3
:104DF0000906F04387B246EA0748042D02D1294844
:104E0000C0F800804FF40040FFF799FC05462846A3
:104E1000BDE8F0832DE9F04304460D46164604270D
:104E20004FF000084FF000091B4818300068C0F32D
:104E3000034944EA0500304340EA0900C0434FEA11
:104E4000004844EA0500304340EA090040EA080807
:104E50007803FFF774FC0746042F02D11148C0F80D
:104E600004804FF40040FFF76AFC07463846BDE86F
:104E7000F083F0B5044604250026002706481830C4
:104E8000006800F47000070C44EA0700C043060401
:104E900044EA0700064307E0043C0240C8D9EAFBA5
:104EA000272625240000F81F6803FFF748FC054665
:104EB000042D01D1394846604FF40040FFF73FFC14
:104EC00005462846F0BDF0B5044604250026002717
:104ED00033480068C0F3064744EA0700C0430604AD
:104EE00044EA070006436803FFF729FC0546042D42
:104EF00001D12A4846604FF40040FFF720FC0546E8
:104F00002846F0BD26480068C0F307507047244883
:104F1000001D0068704722486430006870472048D0
:104F200068300068704700201D490968C9B2AA2985
:104F300001D0012000E00020704700200021184A25
:104F4000126802F4807109B1012000E0002070476E
:104F500013480068C0F30340704739B1104A183A4B
:104F6000126802430E4B183B1A6006E00C4A183ACE
:104F7000126882430A4B183B1A60704701460020B2
:104F8000074A121F12680A4201D0012000E00020E7
:104F900070470349091F0860704700000000F81FB0
:104FA0001C3C024010B504468548844208D10121CA
:104FB000084600F054FC0021012000F050FC52E0B3
:104FC0008048844208D10121022000F048FC0021E1
:104FD000022000F044FC46E07B48844208D10121D5
:104FE000042000F03CFC0021042000F038FC3AE0F2
:104FF0007648844208D10121082000F030FC0021CD
:10500000082000F02CFC2EE07148844208D10121D8
:10501000102000F024FC0021102000F020FC22E0F1
:105020006C48844208D10121402000F018FC002186
:10503000402000F014FC16E06748844208D10121AA
:10504000802000F00CFC0021802000F008FC0AE029
:105050006248844207D10121202000F000FC002199
:10506000202000F0FCFB10BDF0B50A460021002313
:10507000002400BF3DE0012505FA01F3156805EAAB
:1050800003049C4234D105684F000326BE40B5435B
:10509000056015794E00B540066835430560157901
:1050A000012D02D01579022D16D185684F000326F7
:1050B000BE40B543856055794E00B540866835439E
:1050C0008560858801268E40B543858085889679E0
:1050D0008E40B6B235438580C5684F000326BE407A
:1050E000B543C560D5794E00B540C6683543C56047
:1050F000491C1029BFD3F0BD4FF6FF71016000219C
:10510000017141718171C171704708B54FF48032EE
:105110000092009A0A430092009AC261C161009A0B
:10512000C261C2690092C269009208BD02460020B5
:10513000138A0B4201D0012000E000207047014695
:10514000088A704702460020938A0B4201D0012052
:1051500000E0002070470146888A7047018370474D
:10516000418370470AB1018300E041837047818227
:105170007047828A4A4082827047F0B5002300243B
:105180004D07ED0E02FA05F3CE1000F1200555F89B
:1051900026504E07F70E0F26BE40B543CF1000F144
:1051A000200646F82750CE1000F1200555F826506D
:1051B00045EA0304CE1000F1200545F82640F0BD75
:1051C000000002400004024000080240000C0240BF
:1051D0000010024000180240001C0240001402406F
:1051E0000E49086070470D49486070470B49886058
:1051F00070474AF6AA200949086070474CF6CC402F
:1052000006490860704701460020044AD2680A42F5
:1052100001D0012000E00020704700000030004075
:1052200010B50121480200F03CFB00214FF4007052
:1052300000F037FB10BD00BF5B48006810F0200F86
:10524000FAD0704700B501465748001F006820F0AB
:105250007F70554A121F1060D1E900021043524A74
:10526000121F12681043504A121F1060FFF7E3FF2D
:105270004D480838006820F07E004B4A083A10601C
:10528000D1E9020210430A691043474A083A1268FA
:105290001043454A083A106000BD0021016041609A
:1052A0008160C160016170474049086070474049B2
:1052B000086070473D49C86170473B49091F09684C
:1052C00021F07001384A121F11601146096801432C
:1052D000116070473449091F096821F46071324A2E
:1052E000121F1160114609680143116070472E4A70
:1052F000121F126822F478322B4B1B1F1A601A46B9
:10530000126840EA01031A43274B1B1F1A607047BB
:105310002549091F096821F4E051234A121F116031
:10532000114609680143116070471F4A0C3242F868
:105330002010704701201F490860704739B11A4A90
:10534000121F12680243184B1B1F1A6006E0164A10
:10535000121F12688243144B1B1F1A6070470146CC
:105360000020114A12680A4201D0012000E000200A
:1053700070470D49091D08607047014600200A4A20
:1053800012680A4201D0012000E00020064A121FE4
:1053900012680A4202D008B1012000E000207047E4
:1053A0000149091D0860704708240040008004423C
:1053B000808004420881044210B50121080700F0F2
:1053C00070FA00214FF0805000F06BFA10BD4D498B
:1053D00008627047014600204B4A106820F0E00048
:1053E00008431060704747490861704708B50022BC
:1053F0000092444AA03202440092009A116008BD13
:105400004049886270473F49486270470146002022
:105410003D4A106820F4C050084320F00C023A4B7B
:105420001A60704758B13849096841F00101364A9D
:1054300011601146096841F4804111600AE0324967
:10544000096821F48041304A11601146096821F051
:1054500001011160704710B5024600202A4B186800
:1054600020F0030010431860284B1B6823F004034E
:10547000264C2360012901D130BF00E020BF10BDC0
:1054800010B502460020204B186820F0030010439E
:1054900018601E4B1B6843F004031C4C2360012959
:1054A00001D130BF00E020BF184B1B6823F004037C
:1054B000164C236010BD1448006840F004001249E7
:1054C00008600846006840F0020008600F48006865
:1054D00040F004000D49086000BF00BF30BF7047B6
:1054E00001460020084A52680A4201D0012000E02B
:1054F000002070470449096841EA8001024A1160AE
:105500007047000000000E420070004010ED00E007
:10551000F948006840F48070F7490860F6480830A0
:105520000068F6490840F44908310860F24800680C
:10553000F3490840F04908600846006820F48020DC
:105540000860ED480830006820F47D00EA49083121
:1055500008600020091D086070470021E64A921C7F
:10556000117011460870704710B5014600220023E3
:1055700000204A11012A02D1DF4C236802E0DE4CF0
:105580003434236801F01F02012494401C4201D0EE
:10559000012000E0002010BD38B50020009000245C
:1055A000002500BF3120FFF7DFFF05460098401CB3
:1055B00000900098B0F5A06F01D0002DF2D03120FE
:1055C000FFF7D2FF08B1012400E00024204638BDD7
:1055D000C949C91D0870704701460020C64A121DFE
:1055E000106820F46040084310607047C5490862A5
:1055F000704701460020C04A121D106820F4F85080
:1056000040EA012010607047BE49086070470021E1
:10561000B94A35321170114608707047BA490860AE
:10562000704710B541EA02030343B34C0A342370B8
:1056300010BDB44908667047B24908677047B2495F
:105640002C310860704740EA0102AB4B0B331A70F3
:10565000704701460020A84A0832106820F0030075
:10566000084310607047A4480830006800F00C0040
:10567000704701460020A04A0832106820F0F00070
:10568000084310607047014600209B4A08321068AA
:1056900020F4E06008431060704701460020964AFD
:1056A0000832106820F4605040EAC1001060704772
:1056B000F0B50021002200230026002400258E4F93
:1056C00008373F6807F00C0131B1042912D00829CE
:1056D00013D00C2937D113E0874F3F1D3F68C7F324
:1056E00042356F1C4FF0010C0CFA07FC4FEACC3727
:1056F000076036E0854F076033E0854F076030E094
:105700007D4F08373F6807F470127B4F08373F68BA
:1057100007F440037F4F07EB92473A78012707EBE6
:105720009353754F08373F6807F480362EB9774F8B
:105730005743B7FBF3F7076004E0754F5743B7FBD8
:10574000F3F707600DE06C4F3F1D3F68C7F342352C
:105750006F1C4FF0010C0CFA07FC4FEACC370760C6
:1057600000BF00BF644F08373F6807F0F001090928
:10577000694F7C5C0768E74047605F4F08373F68C8
:1057800007F4E061090A644F7C5C4768E740876082
:10579000594F08373F6807F46051C90A5E4F7C5C77
:1057A0004768E740C760F0BD002100F44032B2F521
:1057B000403F08D1504A116821F0C04100F0C0427A
:1057C00011434D4A11604C4A3432126822F440327F
:1057D000494B34331A601A46126800F440331A43B6
:1057E000454B34331A607047474958310860704759
:1057F00045495C310860704739B13F4A1C32126834
:1058000002433D4B1C331A6006E03B4A1C321268CF
:105810008243394B1C331A60704739B1364A203203
:1058200012680243344B20331A6006E0324A2032B9
:1058300012688243304B20331A60704739B12E4AC8
:105840002432126802432C4B24331A6006E02A4AA1
:10585000243212688243284B24331A60704739B1CE
:10586000254A103212680243234B10331A6006E0B7
:10587000214A1032126882431F4B10331A6070475E
:1058800039B11D4A1432126802431B4B14331A609B
:1058900006E0194A143212688243174B14331A6017
:1058A000704739B1144A183212680243124B183348
:1058B0001A6006E0104A1832126882430E4B183301
:1058C0001A60704739B10C4A2832126802430A4BF9
:1058D00028331A6006E0084A283212688243064BD1
:1058E00028331A607047C9B1034A2C321268024348
:1058F000014B2C331A6016E0003802400CC0FF88C0
:10590000FEFFFEEE00004742800647420024F400FE
:10591000001BB700D5000020DE0000201F4A1268DF
:1059200082431E4B1A60704739B11C4A121D12681F
:1059300002431A4B1B1D1A6006E0184A121D12681A
:105940008243164B1B1D1A60704739B1134A1F3A28
:1059500012780243114B1F3B1A7006E00F4A1F3AA0
:10596000127882430D4B1F3B1A7070470B4808306A
:10597000006840F0807009490831086070470146AE
:105980000020064A203A12680A4201D0012000E0B5
:105990000020704701491E39087070472C380240BA
:1059A00008B50022009200200021CA22F94B1A609B
:1059B00053221A60F74A183A126822F0A002F54BF7
:1059C000183B1A6000BFF34A183A126802F020012F
:1059D000009A521C0092009AB2F5004F01D00029A3
:1059E000F1D0EC4A183A126812F0200F01D00120D1
:1059F00000E00020FF22E74B1A6008BD08B5002236
:105A0000009200200021E34A183A126812F0400F79
:105A10001CD1421EDF4B183B1A6000BFDD4A183A0A
:105A2000126802F04001009A521C0092009AB2F5EE
:105A3000005F01D00029F1D0D64A183A126812F05E
:105A4000400F01D0012002E0002000E0012008BD4D
:105A500038B50020009000240025CA20CD490860F8
:105A600053200860FFF7CAFF00B952E00020C9497F
:105A70002439086042F20110091D0860081D006801
:105A800000F00700091D086000BFC2481838006810
:105A900000F004040098401C00900098B0F5005FEE
:105AA00001D0002CF1D0BB481838006810F0040F6A
:105AB00001D100252DE0B7481C3800680020B54909
:105AC0001C3908604FF6FF70B24910390860B248BF
:105AD000091F08600020AF490C390860091D0860E3
